:020000041008E2
:4000000000780408EB0208100D0000005103081051030810510308105103081000000000000000000000000000000000C14E08104D03081000000000614F0810C54F0810F7
:400040004D0308104D0308104D0308104D0308104D0308104D0308104D0308104D0308104D0308104D0308104D0308104D0308104D0308104D0308104D0308104D03081000
:400080004D0308104D0308104D0308104D0308104D0308104D0308104D0308104D0308104D0308104D0308104D0308104D0308104D0308104D0308104D0308104D030810C0
:4000C0004D0308104D0308104D0308104D0308104D0308104D0308104D0308104D0308104D0308104D0308104D0308104D0308104D0308104D0308104D0308104D03081080
:400100004D0308104D0308104D0308104D0308104D0308104D0308104D0308104D0308104D0308104D0308104D0308104D0308104D0308104D0308104D0308104D0308103F
:400140004D0308104D0308104D0308104D0308104D0308104D0308104D0308104D0308104D0308104D0308104D0308104D0308104D0308104D0308104D0308104D030810FF
:400180004D0308104D0308104D0308104D0308104D0308104D0308104D0308104D0308104D0308104D0308104D0308104D0308104D0308104D0308104D0308104D030810BF
:4001C0004D0308104D0308104D0308104D0308104D0308104D0308104D0308104D0308104D0308104D0308104D0308104D0308104D0308104D0308104D0308104D0308107F
:400200004D0308104D0308104D0308104D0308104D0308104D0308104D0308104D0308104D0308104D0308104D0308104D0308104D0308104D0308104D0308104D0308103E
:400240004D0308104D0308104D0308104D0308104D0308104D0308104D0308104D0308104D0308104D0308104D0308104D0308104D0308104D0308104D0308104D030810FE
:400280004D0308104D0308104D03081010B5054C237833B9044B13B10448AFF300800123237010BD7C76020800000000349E0810084B10B51BB108490848AFF30080084887
:4002C000036803B910BD074B002BFBD0BDE81040184700BF0000000080760208349E081024470208000000007047FFF7FDFF72B6104C114DAC4209DA21686268A368043B57
:40030000A2BFC858D050FAE70C34F3E70B490C4A00209142BCBF41F8040BFAE709480A490860BFF34F8F00F0F1FD00F0CBFD00F0C5FCFEE7C87D0910E07D09107C76020848
:40034000C84203080040020808ED00E0FEE7FEE700B504207146084202D0EFF3098001E0EFF30880043002F023F8FEE730B583B0054604F027FD044601461C4806F02AF96E
:400380000134092C22D91A4B186804F00FFD22460146184806F01EF917480368174C226841688068019060680090154806F012F90021284604F01AFD03F0A8FF002300935E
:4003C00002460221284604F09BFB0CE02146284604F00CFD00230093642202FB04F20421284604F08DFB03B030BD00BFC887081004420308CC870810987602088C4202082C
:40040000EC87081000B583B002A9002341F8043D084B186803F092FB019B3BB14FF08052054B1A60BFF34F8FBFF36F8F03B05DF804FB00BF0842030804ED00E008B5184802
:4004400006F03AF900214FF0FF3003F005FA154C2060012003F0F4FA134B1860236813B1124806F029F9104B1B6813B1104806F023F9104805F004F801E009F011FE0E4BC1
:400480001B78022BF9D10D4802F05AFA4FF0FF31044B186803F05CFC09F002FEF6E700BF20880810084203080C4203083488081060880810390A08101842030805040810D6
:4004C00010B582B0114806F0F7F8114B00930023012264210F4804F0F9FA0F4B186018B90E4806F0E9F80EE0044603F00FFF0023009302460121204604F002FB012802D054
:40050000074806F0D9F802B010BD00BF908808106D030810AC88081004420308B4880810D088081008B5064B5968064806F052F800231A4619460448006803F0ADF908BDFD
:4005400098760208048908100C42030838B52C4C00220321204600F0D3FD00220221204600F0CEFD00220121204600F0C9FD00221146204600F0C4FD224D0022022128461C
:4005800000F0BEFD00220321284600F0B9FD00220421284600F0B4FD00220521284600F0AFFD00220621284600F0AAFD00220421204600F0A5FD00220521204600F0A0FDC6
:4005C00000220621204600F09BFD803400221146204600F095FD00220121204600F090FD00220221204600F08BFD00220321204600F086FD00220421034800F081FD38BD51
:4006000080043240800232400000324010B5644C2168644805F0DEFF23680C2B00F2B280DFE803F00714212E3B4855626F7C8996A3005D4806F040F85C4B08225A6004226D
:400640005A6002225A6001225A6010BD584806F033F8564B08229A6004225A6002225A6001225A6010BD534806F026F84F4B08225A6004229A6002225A6001225A6010BD75
:400680004D4806F019F8494B08229A6004229A6002225A6001225A6010BD484806F00CF8424B08225A6004225A6002229A6001225A6010BD424805F0FFFF3C4B08229A6073
:4006C00004225A6002229A6001225A6010BD3D4805F0F2FF354B08225A6004229A6002229A6001225A6010BD374805F0E5FF2F4B08229A6004229A6002229A6001225A608A
:4007000010BD324805F0D8FF284B08225A6004225A6002225A6001229A6010BD2C4805F0CBFF224B08229A6004225A6002225A6001229A6010BD274805F0BEFF1B4B08228A
:400740005A6004229A6002225A6001229A6010BD214805F0B1FF154B08229A6004229A6002225A6001229A6010BD1C4805F0A4FF0E4B08225A6004225A6002229A60012203
:400780009A6010BD164805F097FF084B08229A6004229A6002229A6001229A6010BD00BF8C42020840890810588908108004324064890810708908107C8908108889081027
:4007C00094890810A0890810AC890810B8890810C4890810D0890810DC890810E8890810F489081010B5754C2168754805F0F2FE23680E2B00F2D480DFE813F00F001C00BC
:4008000029003600430050005D006A007700840091009E00AB00B800C5006A4805F04CFF694B04225A6008225A6010225A6020225A6010BD654805F03FFF634B04229A60E0
:4008400008225A6010225A6020225A6010BD604805F032FF5C4B04225A6008229A6010225A6020225A6010BD5A4805F025FF564B04229A6008229A6010225A6020225A6029
:4008800010BD554805F018FF4F4B04225A6008225A6010229A6020225A6010BD4F4805F00BFF494B04229A6008225A6010229A6020225A6010BD4A4805F0FEFE424B042216
:4008C0005A6008229A6010229A6020225A6010BD444805F0F1FE3C4B04229A6008229A6010229A6020225A6010BD3F4805F0E4FE354B04225A6008225A6010225A60202225
:400900009A6010BD394805F0D7FE2F4B04229A6008225A6010225A6020229A6010BD344805F0CAFE284B04225A6008229A6010225A6020229A6010BD2E4805F0BDFE224BFA
:4009400004229A6008229A6010225A6020229A6010BD294805F0B0FE1B4B04225A6008225A6010229A6020229A6010BD234805F0A3FE154B04229A6008225A6010229A603A
:4009800020229A6010BD1E4805F096FE0E4B04225A6008229A6010229A6020229A6010BD184805F089FE084B04229A6008229A6010229A6020229A6010BD00BF987602082E
:4009C000008A0810188A081080023240288A0810388A0810488A0810588A0810688A0810788A0810888A0810988A0810A88A0810B88A0810C88A0810D88A0810E88A081085
:400A0000F88A0810088B081008B5034B5968034805F0E0FD08BD00BF8C420208188B081008B5034B9968034805F0D4FD08BD00BF987602082C8B081070B544F206039842AB
:400A400000F084800D461ED8B0F5005F53D00CD841F2010398424AD041F2020398424ED0B0F5805F40F0F0802CE043F2030398424ED043F20603984264D043F20203984210
:400A800040F0E28040E045F2010398426AD009D844F20803984218D05CD344F20A0398425CD0D1E045F20303984200F0C5806AD345F20C0398426AD045F21703984200F02A
:400AC000BF80C1E0634805F0F7FD04F0F5FC0021084601F0F7FF604B01221A6102225A605E4805F0E9FD5E4805F0E6FD70BD5D4805F0E2FD70BD5C4805F0DEFD70BD09782C
:400B00005A4805F067FD70BD594805F0D5FD70BD584805F05FFD06240EE06B681B68013C554E195D304605F055FD6B685B68195D304605F04FFDE4B2002CEED14F4805F0B6
:400B4000BBFD70BD4E4805F0B7FD70BD4D4805F041FD70BD4C4805F0AFFD70BD4B4805F0ABFD70BD0A784978494805F033FD6978484805F02FFD384B00221A6101225A60E8
:400B800004F0B2FC70BD444805F096FD70BD434805F092FD2B89102B26D10A21404B186803F0D6F8012810D12B681B783D4A5360642B02D964223B4B5A6000231A461946BD
:400BC0003748006802F068FE02E0374805F074FD344B5A68204BC3F84C210A21304B186803F0B6F8FFF79EFC2B89132B05D12B681A782E4B1A60FFF709FD2B89162B05D11D
:400C00002B681A78274B1A60FFF7ECFD2B89192B05D12B681A78254B5A60FFF7F5FE2B891C2B05D12B681A781E4B9A60FFF7F8FEE86811F071F970BD1D4805F03DFD70BDD0
:400C40001C4805F039FD70BD01461B4805F0C2FC70BD00BF448B0810000038405C8B0810748B0810988B0810B08B0810CC8B0810F08B0810188C0810408C0810248A081004
:400C8000488C08106C8C0810988C0810BC8C0810E88C0810108D0810348D0810588D08100C42030898760208748D08108C4202088C8D0810B08D0810DC8D081000B583B034
:400CC00062B604F0ABFB134C2068002302221946406805F0F9FC2068002302221946806805F0F2FC0C4805F0E7FC04F0FDFB04F0E3FBFFF72BFCFFF7E3FB00230193022274
:400D000000924FF400520549054803F085FA03F0B5FAFEE7E0460208F08D0810108E08103D04081008B5012000F064FE08BD00BF704700BF5C4AD2F8803303F00F0303F1DE
:400D4000D00152F8212002F00702032A04D0042A05D092B9554914E0554A116811E003F1C002514951F8222002F01F02112A06D0132A04D04FF4FA4103E04E4901E04FF406
:400D800000418BBB484BD3F8902502F00100D3F88825C2F30172D3F8883513F0405F07D0414BD3F88835C3F30173012B02D102E0012300E0002303B108B9032A46D13A4884
:400DC000D0F88025C2F31103D0F88425C2F30C02D0F88005C0F300600130B1FBF2F202FB03F2B2FBF0F131E0012B2FD12E4BD3F8402602F00100D3F80026C2F30172D3F82A
:400E0000003613F0405F07D0274BD3F80036C3F30173012B02D102E0012300E0002303B108B9032A12D12048D0F8002602F07F02D0F80036C3F30423D0F80006C0F3044070
:400E400002FB01F2B2FBF3F2B2FBF0F1164BD3F88033C3F3011321FA03F215494A601648D0F89030C3F3072301330069000E0130B2FBF0F08860B2FBF3F3CB600B6103F568
:400E8000742202F23F220D48A0FB0202C2F387420A7503F2E7330A4AA2FB03239B098B61DB03CB61704700BF0000264000127A009442020800366E010000214083DE1B4389
:400EC000D34D621008B50D4801F038FBFFF730FFFFF730FF00221146042000F03DFB084800F0D0FB074B1B6893F8513013B1064800F038FC00F0FCF808BD00BF9C9108104C
:400F0000A476020810420308188E081008B501F0ACFA074AD2F8883043F47003C2F88830BFF34F8FBFF36F8F01F0A3FA08BD00BF00ED00E010B504462146034800F0E8FD7A
:400F40000028F9D010BD00BF00006640054BD3F80833C3F30803002BF8D0024BD3F84003704700BF000066401F4B98422DD00CD840282ED003D8E8B1102828D02FE08028E7
:400F800029D0B0F5807F28D029E0184B984228D006D8B0F1204F0DD0154B984212D01EE0144B98420AD00133984209D0023B984215D101E0002070470F4870470F487047AE
:400FC0000F4870474FF4A0007047074870470D4870470D4870470D487047034870470C4870474FF4A400704706005200010000F0090000A0040000F00100520002005200E7
:4010000003005200010050000200500005005200FF00520038B5124B1B6893F83130012B04D840F2C3110F4801F0B2F90C4B1D682A6AB5F8B03013442C46D5F8B420D358C4
:40104000002B0BDB084B1868FFF78EFF6B6801229A6063689B68002BFBD138BD034838BD104203085C8E081024780208020050001A4B186128B102230370FF234370002381
:401080004380174B1B6893F850202AB300B583B0B3F93830ADF80030002301931149684601F022F9BDF90030002B08DB590903F01F03012202FA03F30B4A42F82130084B61
:4010C0001B6893F8513023B102220849012000F0F5FB03B05DF804FB704700BF24780208104203089547020800E100E04D48020808B50248FFF7BCFF08BD00BF387802085B
:40110000002800F06E81F8B50646002A00F06B8114460D46072903D94521B44801F038F92368012B03D94621B04801F031F9636833F00F0303D04721AC4801F029F9237A80
:4011400033F01F0303D04821A84801F021F9E368032B03D94921A54801F01AF92369012B03D94A21A14801F013F96369012B03D94B219E4801F00CF9A369012B03D94C21C1
:401180009A4801F005F9E369032B03D94D21974801F0FEF8236A012B03D94E21934801F0F7F8636A012B03D94F21904801F0F0F8A36A012B03D950218C4801F0E9F8E36AA6
:4011C000032B03D95121894801F0E2F8236B072B03D95221854801F0DBF82768072D04D940F22731824801F0D3F8012F04D94FF44A717F4801F0CCF81FB90123AB40736046
:4012000002E00123AB40B3606768072D04D94FF47171774801F0BCF837F00F0304D040F2C531734801F0B4F8A800724B1B6893F87D108B590F22824023EA020207F00F03C3
:4012400003FA00F717438F51277A072D04D94FF42271674801F09CF837F01F0304D040F28921634801F094F8624B1A689369F31ADB0952691B01D018032D0ED8D1584FEA10
:40128000C50E1F2000FA0EF021EA000007F01F0101FA0EF70743D7500CE02A1F4368D2001F21914023EA010107F01F0303FA02F70F434760E768082D04D94FF4DD614C4841
:4012C00001F066F8032F04D940F2E961484801F05FF86800474B1B6893F87C108B590322824023EA020207F0030303FA00F717438F512769082D04D940F269613C4801F08E
:4013000047F8012F04D940F26A61394801F040F8B2690123AB4022EA030307F00107AF401F43B7616769072D04D940F20341304801F02EF8012F04D940F204412C4801F047
:4013400027F82C48036893F87EE05EF80630012202FA05F123EA01031740AF401F434EF8067005FA02F303F1100E032202FA0EF20A43036893F87F70BB5923EA0203A269E6
:4013800002F00102AA4043EA0201E36903F0030202FA0EF30B43BB51036893F88010705820F0FF00236A03F00102636A5B0003F002031343A76ABF0007F004073B43E26A91
:4013C000D20002F018021A43236B5B01DBB21343AD0005F47E7503FA05F5054375500020F8BD054870470448F8BD00BF9C8E0810DC8E08101042030801005A0038B50B4BF0
:401400001B68D3F8B4301B58002B0DDA0D4604460B0C1B0423B140F2D521054800F0B8FFA9B26160002038BD024838BD104203081C8F081001008A0038B50368002B01DAB9
:40144000002300E0094B73B90D460446C2600B0C1B0423B140F2BB21054800F099FFA9B2A160002038BD014838BD00BF01008A001C8F081038B504460D4619B9992108481B
:4014800000F086FF074B1B68D3F8B4301B59002B03DAE3682B60002038BD034838BD00BF5C8F08101042030801008A00254B1B6893F8313083423AD900293AD00B6813F082
:4014C0001F0F38D170B50D4604461E4B1B6893F83130984204D340F2C3111B4800F058FF184B1B68186AB3F8B03004FB0304174E34602A68D2080021686804F0F1FB00216A
:401500002046FFF77BFF346825B940F293310E4800F03EFF2A4600212046FFF78DFF60B900210A4B1868FFF769FF40B970BD084870470748704706487047064870BD0548FC
:4015400070BD00BF104203081C8F08103C78020803018A0001018A0010B504461346B2B9A9B9124B1B6893F83130984204D340F2C3110F4800F00CFF0C4B1B681A6AB3F874
:40158000B03004FB03240B4B1C60002010BD43B149B1084A51609360111D2046FFF786FF10BD054810BD044810BD00BF104203081C8F08103C78020803018A002DE9F04101
:4015C0001B4B1B68DC68236883422CD90D464609A0EB4610012303FA00F819B900F045FF074600E00027124B18680368002B01DA002300E00F4B83B9626852F8263018EA20
:40160000030F05D023EA080342F82630002400E0094C0021FFF7F2FE00E0084C25B9384600F027FF00E0064C2046BDE8F08100BF3C78020801008A00020188000301880048
:4016400004018A000B4B1B68DB681A6882420CD94109A0EB4110012202FA00F05B6853F82130184203D004487047044870470448704700BF3C7802080101880004018A0034
:4016800000018800024B1B680BB9014B18607047487802082DE9F8430446884691461D46089F2C4B1B681BB9B5212B4800F070FE284B1B682C2000FB04F01C18EEB21E5096
:4016C000C5F3072363602D0CA560244B1B6893F831309E4204D340F2C311214800F058FE1E4B1B68196AB3F8B02006FB02162661666893F832309E4204D340F2DF1118483F
:4017000000F046FE154B1B681D6A803605EB46156561A668330C1B0423B14FF4FF71104800F036FE330C1B0423B140F2FF110C4800F02EFEB3B243EA0646AE60C4F81C909D
:40174000C4F820800023A36117B1B7F90030A381BDE8F883487802089C8F0810104203081C8F0810F0B58FB0044618B95221274800F00EFEA369072B03D95621234800F004
:4017800007FEE36A1BB95821204800F001FE236B1BB959211D4800F0FBFD07AD04F114060FCE0FC537682F6002AD26460FCE0FC533682B60164B1B68B3F93620079B134497
:4017C000ADF83030089B0D93A26AE16A0CAD00953B460A98FFF75EFF00210091069B0A460598FFF757FF216B284600F07DFDBDF93030002B08DB590903F01F03012202FADC
:4018000003F3044A42F821300FB0F0BD9C8F08101042030800E100E0F8B506460F461D4614461AB9FD211F4800F0B2FD1E4B1B681BB9FE211B4800F0ABFD1B4B1B682C21FA
:4018400001FB063001FB07314B68012202FA03F31B04466802FA06F60269EAB18F69EFB91268002A01DA002200E0104AC2B92288134323600369DC6001238B614D62046922
:40188000330C1B0423B140F2BB21094800F080FDB2B2A2600020F8BD0648F8BD0648F8BD0548F8BD9C8F08104878020801008A001C8F081004028A0007028A00F8B5054671
:4018C0000F4616460E4B1B6823B94FF4AF710D4800F05EFD0A4B1B682C2404FB0534236A23B94FF4B171074800F052FDE369B34204D9236A43F826700020F8BD0248F8BD70
:40190000487802089C8F08100A028A0038B504460D46074B1B6823B94FF4C871054800F037FD034B1B682C2202FB0434A56238BD487802089C8F081070B582B00023019371
:40194000044620B940F2D111284800F021FD236923B94FF4E971254800F01AFD636923B940F2D311214800F013FD236A23B94FF4EA711E4800F00CFD6369DD682A0C20D075
:4019800012041A601B682069194B1B68D3F8B430C358002B15DA01A9FFF76CFD60B9019803681E0CDBB2E269934206D2226A52F8233013B1984700E0002631462069FFF723
:4019C0001DFDADB275B16369ADB21D601B68636A1BB198470023636202E0A36A03B198470023A36163691B6802B070BD9C8F08101042030810B50446074B1B6823B940F254
:401A0000B111064800F0C4FC034B1B682C2000FB0430FFF791FF10BD487802089C8F081010B50446104B1B6823B940F22B210F4800F0AEFC0C4B1B682C2202FB0434B4F9F8
:401A40000C30002B0DDB5A0903F01F03012101FA03F32032064941F82230BFF34F8FBFF36F8F002010BD00BF487802089C8F081000E100E010B504460D4B1B6823B940F2AE
:401A80004B210C4800F084FC094B1B682C2202FB0434B4F90C30002B08DB590903F01F03012202FA03F3044A42F82130002010BD487802089C8F081000E100E010B4D0F8F9
:401AC000003303F00F03072B06D900230DE0D0F84043CC54013300E000239342F7D306E0D0F8404321F8134001339342F8D35DF8044B704710B51446D0F80833C3F308039D
:401B00009A4200D31C462246FFF7D8FF204610BD036813F4006F01D0802200E04022D0F80832C3F30803934203D0C0F84012012070470020704700BF10B4D0F8003203F002
:401B40000F03072B06D900230DE0CC5CC0F84042013300E000239342F7D306E031F81340C0F8404201339342F8D35DF8044B704710B51446036813F4006F01D0802200E0DC
:401B80004022D0F80832C3F30803D31AA34200D81C462246FFF7D0FF204610BD2DE9F84305460C46036813F4006F02D04FF0800801E04FF04008D5F8007207F00F07A26A6C
:401BC000012A19D9D4F82490E262561EB9F1000F00D026B940F27351254800F0D9FB324649462846FFF7C4FFA36A1B1AA362072F00D9400048446062D5F80832C3F3080327
:401C0000984533D0A36A012B30D10023A362072F02D8636A1E7801E0636A1E8800F025FCC5F840624FF40073C5F8803FD5F8803F00F01FFCD5F8883F23F4007222F0010230
:401C400042F4007623F4EE6323F0030323B140F22A41084800F09CFBC5F8886F236843F002032360236B0BB101209847BDE8F883DC8F08101C9008102DE9F04105460C4660
:401C8000036813F4006F01D0802600E040267608A769D4F81C8017B1B8F1000F04D14FF49961314800F074FB424639462846FFF721FF236A03442362E3691B1AE36173BB4F
:401CC000A368FBB1E3689E4201D8013E00E05E1E2B6813F4006F01D0802300E040239E4204D34FF42071214800F052FBD5F8043323F0FF03F6B21E43C5F804630123C5F876
:401D0000C83F02E00023C5F8C83F636823F001036360236B33B304209847BDE8F081A169D5F8002302F00F02072A00D940000844A0619E4216D95C1E2B6813F4006F01D0EA
:401D4000802300E040239C4204D34FF42071074800F01EFBD5F8043323F0FF02E3B21343C5F80433BDE8F081DC8F08101C900810002800F0A48170B50546002900F0A18160
:401D800016460C460B78022B03D93F21A24800F0FFFA637B023BDBB2062B03D940219E4800F0F6FAA37B3BB1022B05D0032B03D04121994800F0ECFA94F82130012B03D9CF
:401DC0004221954800F0E4FA94F82830012B03D94321914800F0DCFA2378012B06D86368083B082B94BF0023012307E0A37F2BB16368013B062B94BF002301231BB145217D
:401E0000854800F0C5FAA368053B042B03D94621814800F0BDFA6369FF2B03D947217E4800F0B6FAA369FF2B03D948217A4800F0AFFAA37C6BB1237833B9A368092B05D1AC
:401E4000A37B2BB1012304E0012302E0012300E000231BB14A21704800F09AFA636B23F4366323F00D031BB14C216B4800F090FAE36B23F4EE6323F003031BB14D21664802
:401E800000F086FA2378022B01D1A37F13B16268013A00E00022237F13B14FF4803100E00021A368082B02D84FF4006300E000230B4302F00F02134343F000732B60226BAA
:401EC0002B6813F4006F01D0802300E040239A4203D36221504800F05BFAA26B2B6813F4006F01D0802300E040239A4203D36321494800F04DFA626A2B6813F4006F01D09F
:401F0000802300E040239A4203D36421424800F03FFA23781B0603F040732B64637F0BB1402200E00022A37C13B14FF4806300E000231343227C12B14FF4807200E00022E4
:401F40001343627C12B14FF4007200E000221A43E36A013B1B0403F470231343627B013A02F007021343A27B120102F030021343AB64237B13B14FF4807200E00022E37BB5
:401F800023B92378022B03D1012302E0012300E0002313B14FF4007300E000231A43A368013B03F00F031343C5F80033227DA3691B0403F47F031343C5F81033E26AD5F85E
:401FC000003303F00F0303339A4201D3102A03D97A21114800F0DCF9E37F23B12378012B03D0002302E0002300E0012313B14FF4807200E00022637B013B03F007031A4389
:40200000A37B1B0103F0300313436B64237B2BB14FF4807203E000BF609008100022A368013B03F00F0313432278012A02D14FF4803200E000221343C5F8003294F830303E
:40204000C5F8043394F8203013B14FF0007200E0002294F82130012B02D14FF0807300E00023134394F82820012A02D14FF4803200E00022134394F8242013432B6594F851
:402080003830C5F80432636B23F4926323F002031B051B0DC5F8C83FE36B23F08C035B055B0DC5F8883F76B1002070603060B060F0603062F0623063044B736370BD04486F
:4020C0007047034870BD002070BD00BFEFCDAB000160AA000B694A69934202D34869181A7047CA694869101A184470472DE9F04107460D46036813F4006F02D04FF0800846
:4021000001E04FF040084FEA5808D7F80863C6F308062C6926E00134EB689C4200D100246B699C420FD12B6B0BB1082098476B699C4208D10023C7F8C83F0CB1013C13E05B
:40214000EC68013C10E0D7F84023D7F8003303F00F03072B02D8AB681A5502E0AB6823F81420013E002ED6D12C61EC6829463846FFF7B0FF201A804519D908B1441E00E060
:4021800000243B6813F4006F01D0802300E040239C4204D34FF42071064800F0F9F8D7F8040320F0FF03E0B21843C7F80403BDE8F08100BF1C90081038B504460D46D0F8ED
:4021C000003E13F0080F35D0D0F8CC3F13F448730AD04A681A434A60C0F8C03FD0F8C03F0B6B0BB110209847D4F8CC3F13F4006F09D06B6843F400636B604FF40063C4F8DB
:40220000C03FD4F8C03FD4F8CC3F13F0010F11D0EB6923B129462046FFF72EFD05E0AB681BB129462046FFF761FF0123C4F8C03FD4F8C03FD4F8003E13F0040F2ED0D4F868
:402240008C3F13F4A0630AD02A681A432A60C4F8803FD4F8803F2B6B0BB120209847D4F88C3F13F0010F08D029462046FFF796FC0123C4F8803FD4F8803FD4F88C3F13F418
:40228000007F0BD00022C4F8882F2B6823F001032B60EA622B6B0BB10220984738BD00BF38B50D4B9A680D4B9A420FD10D46044621B940F237110A4800F06AF804F11003AF
:4022C000064A52F8230042F8235038BD1030054B53F8200038BD00BF00ED00E000400208A09008100000081048B338B504460D464368072B03D93221134800F049F8B4F98F
:4023000000306268002B08DB5201D2B203F1604303F5614383F8002305E003F00F035201D2B20A49CA540A4B9A680A4B9A4208D12946B4F90000FFF7B3FF002038BD064833
:402340007047002038BD00BFA090081014ED00E000ED00E0004002080100560010B5044605E0084B186800F077F8A4F50044B4F5004FF6D8044B186800FB04F000F06CF860
:4023800010BD00BFB0420208AC42020801BEFEE738B50D46044C18220146204604F046FAA5610020FFF7F2FFC04C0208FEE700BF08B50268254BDA6142681A6282685A62E9
:4023C000C2689A620269DA6242691A6382695A63C2699A631E4A916AD963D16A1964516A5964516B9964926BDA64F1EE103A13F0900F27D0026A154B1A65426A5A65826AF1
:402400009A65C26ADA65026B1A66426B5A66826B9A66C26BDA66026C1A67426C5A67826C9A67C26CDA67026DC3F88020426DC3F88420826DC3F88820C26DC3F88C20026E92
:40244000C3F89020FFF7B2FF08BD00BFC04C020800ED00E0000000000230800803D001300238FCD100BF00BF7047EFF3108072B6704780F31088704710B30246C3680BB3E2
:4024800003680BB330B40579114B03EB85035C682346002103E0934205D019465B69002BF9D1012000E0002080B124B9084B03EB85056A6000E04A6111610023536105E04F
:4024C00000207047002070470020704730BC70474C78020850B310B402460479164B03EB840359680B4602E0934204D05B69002BFAD1002000E00120D0B18A420ED14B692C
:4025000033B10D4A02EB8404636000221A610FE0094B03EB84040023636009E01A69596951615A6922B11B69136101E0002070475DF8044B704700BF4C780208014B18601A
:40254000704700BF10420308002800F0AC8070B40446002A00F0A98092F828300BB1012500E00025137F0BB1022300E000231D431669B60406F4802645EA060395682D04B5
:4025800005F440351D431668300600F0E0602843136B556B43EA45031B0503F440130343906B43EA8000052E03D1D3681B029BB202E053681B029BB20343081D80012350E1
:4025C0001368062B08D104EB81130120C3F808013F20C3F828011DE0936843B904EB81130020C3F808013120C3F8280112E0012B08D1506904EB8113C3F808011C20C3F82D
:40260000280107E004EB81130120C3F808011220C3F82801106A04EB8113C3F80C01506AC3F810015069C3F814019069C3F81801136EB3F1FF3F17D0106C00F00F00966CA4
:40264000360206F470663043156D2D0405F470250543906D000380B228431B01DBB2034304EB8110C0F82031D36B03F00303566C360106F030063343D56C2D0205F4407551
:402680002B43506D8001C0B21843D36D9B0003F00C03034304EB8114C4F82431D36AC4F83831002002E002487047014870BC70470100B60010B5012902D0082929D02EE0A8
:4026C0001A4B1B78012B2CD00320FEF7BBFF184B984228D0FFF7C9FE164B1860022007F0E1FC044607F0E9FC022C05D1032805D0052805D1002404E00F4C02E0002400E0B1
:402700000D4C0D4B9C420FD10A4B1868FFF7B1FE0AE0084B1868FFF7ACFE002404E0064C02E0054C00E0044C204610BD184203080101880088780208FF00420008B5022941
:402740001CD0082914D001291ED1124B1B78012B1CD0FFF78AFE104B5860022007F0A2FC022815D00C4B5868FFF783FE0B4808BD094B5868FFF77DFE002008BD064B5868BF
:40278000FFF777FE054808BD044808BD034808BD002008BD1842030888780208FF00420010B5044C2046FFF795FE04F11800FFF791FE10BDB4420208B0B110B50B4A906018
:4027C000C36A03B1D3600024094B1C70094B1C70094B1C60094B1C7000F06CF9084B1C70084B1C70204610BD0748704788780208284203082C420308304203082D420308F6
:40280000174203081C4203080100160010B598B0424B14AC186859689A68DB680FC44422002103A803F05CFA3D4B039314AB059342F6E803ADF8183004238DF81A30394A88
:4028400092681269079241F2960208921B22ADF82420ADF8262003228DF828208DF8293006238DF82A3010238DF82B308DF82C308DF82D307223ADF8483001238DF84C304F
:40288000294C2046FFF7F8FD04F11800FFF7F4FD07F004FC09A807F05BFC0346002839D1224B04931F4B9B689B6BA3B119685A689C68D868CDF82E10CDF83220CDF8364046
:4028C000CDF83A0019695A69CDF83E10CDF842201B8BADF8463003A807F002FC0346B0B90122134B1A700023124A1370124A13700C4B9B681A6A01929B6ADB88ADF80830A5
:402900001D23ADF80A3001A810F0A0F9034600210A4A1160184618B010BD00BF54920810812E081088780208B4420208544D0208184203082042030821420308304203081E
:4029400018B1034A1061002070470248704700BF887802080100160008B5044B1B689847034B1B6803B1984708BD00BFAC7802089878020808B510B1034A52689047034BD0
:402980001B6803B1984708BDAC7802089878020870B5C0B006460C4615464FF480720849684603F092F905E016F8012B6A401DF80250013C002CF7D1284640B070BD00BF09
:4029C0006492081008B50022FFF7E2FF08BD00BF08B5FFF74AFD08BD08B5FFF74AFD08BD08B50120FFF746F808BD00BF08B50120FFF716F808BD00BF08B5094B58601960D3
:402A0000012208491046FEF759FF034628B9002205490120FEF752FF0346184608BD00BFAC780208752908105929081038B515460B46024601210020FEF7EEFE044618B1BE
:402A400029460120FEF762FF204638BD704700BF704700BF002070470048704711001600004870471100160000487047110016000048704711001600004870471100160094
:402A8000004870471100160000487047110016000048704711001600004870471100160000487047110016000048704711001600704700BF08B5024800F056FD08BD00BFEE
:402AC000BC440208F8B5022872D8002972D10022134606E03B4CE45C012C01D90132D2B20133002BF6D0012A0CD1374B1B681C6801EB8102930023445B681B79023BDBB219
:402B0000012B59D8314B1B78002B57D1304B1970E0B92D4F3C68236801EB8105AA009D186668C1EBC1014B001E44B18829822168114449686468E45A0C8039680C68224450
:402B4000526849680B445B8853801EE001281CD11D4F3C68236801EB8105AA009D186668C1EBC1014B001E44B1892982216811444D68616819440989298039680C68224428
:402B8000526849680B445B895380124B18700E4B1B6818680E4B1B7803EB83039A0010440BF002FE034650B90121084A117006E0094B04E0084B02E0084B00E0084B18469C
:402BC000F8BD00BF204203089078020821420308164203082D4203080100160002001600FF00160070B439B9144B1B681B689968CE7F00231D460EE0104B1B681B68D96874
:402C0000CE7FF6E7CA5C52B10133CC5C1B2C01D0134400E00125B34201D2002DF2D05DB101338279CA54002204E0D4180134855C0D550132052AF8D970BC704790780208CC
:402C400070B5044610F01CF8054620BB134B1968086A228902EB82029300143B03445A6812F0007F17D0E67B1B695A68CB69D21A06EB4606B318A28821680948184403F0C9
:402C800024F8E37B074AD35C012B04D1064A137843F002031370284670BD00BF90780208244203081C4203081742030830B587B002891A4B1B685B699B889A4229D1044643
:402CC00001AB07C883E807000022ADF81020A289ADF8122040228DF814201846FFF7B0FF054680B923681B7803F002039BB22BB10B4B1B6821460B48984704E0084B1B68E1
:402D0000214609489847094A137803F0FE03137000E00025284607B030BD00BF90780208947802080500010006000100284203084288531E9BB21C2B1AD84178D1B910B45F
:402D40000F4B1868046A02EB82029300143B23445A6812F0007F0FD01B695A68C369D31A01EB41011944074B5B5A1380002004E0012070470120704700205DF8044B70477C
:402D8000907802082442030800B583B00023ADF804308389ADF800300389ADF8023012238DF80430084B1B7813F0010F09D129B18DF8051068460FF08FF802E0C0680FF0F6
:402DC000ABF803B05DF804FB2842030810B4044688B10023194606E0104A52F82320944200D1012101330D4A1279934206D20029F2D0002003E00021094800E0002050B929
:402E000049B9064B1B792BB9044A42F823400133137100E003485DF8044B704734420308010016000300160070B506460D460020044606E0084B53F8243029463046984723
:402E40000134054B1B799C4204D2044B1B7813F0010FEFD170BD00BF344203082842030883792BB100207047C25C32B9013300E00023052BF8D9002070470120704700BF90
:402E800070B58CB004460D46BC4A137843F00103137044F20A03984200F0EF813BD842F20403984200F0DD8019D841F20203984200F0048108D8B0F5805F6AD041F201038A
:402EC000984200F0F88035E341F20303984200F02E8141F20403984200F027832AE344F20603984200F017820AD843F21203984200F0AC8044F20403984200F02C8119E397
:402F000044F20703984200F0BB8144F20803984200F0FD810EE345F20E03984200F0F1821BD845F20203984200F07F820AD844F21003984200F0A48145F20103984200F033
:402F40002982F7E245F20303984200F0878245F20C03984200F0AE82ECE245F21403984200F0D8820AD845F20F03984200F0CC8245F21003984200F0CA82DBE245F217038C
:402F8000984200F0CA8246F20103984200F0FF81D0E27B4B1E683046FFF762FF60B130460CF0F8FB764E00213068FFF71BFE01213068FFF717FE37E0724B1A68936A1B79FC
:402FC0001BB34FF0B05191F8043603F03F0391F8050600F03F0043EA801391F8030600F01F0043EA003391F8001601F07F0143EA4143126B1370634A1168096BC3F307200F
:4030000048701268126B1B0C93705E4E3368186B0CF0C0FB33680021186BFFF7E3FD33680121186BFFF7DEFD564B1B68986A02300CF0C6FF544A05AB1068516803C305A805
:403040000CF0CCFB0222514B1A7073E200234F4A13704F4A13700A20FFF780F9FFF7A0FB68E24C4B1B6813F0010F40F063820023ADF814308DF81630424E33689B6A93F94A
:4030800000308DF8143005A80CF0C2FB33689B6A93F901308DF8143001238DF81530FF238DF8163005A80CF0B3FB3A4A136843F0010313603EE2FFF7B7FE3BE24978364B86
:4030C0001B88ADF81430002319E0344A32F81320ADF808209DF8092012B93148825C00E00022012A0AD92D4A12F81320914205D12A4A32F81330ADF8143002E00133002B28
:40310000E3D09DF81530FF2B05D104D140F2CA312448FFF73DF9BDF81430ADF82030ADF81C30C3F3072329781F4AD15402E20B78002B40F0FF810B7A3BB91C4B0222DA80DA
:4031400020229A801A4A1A604B600C4A137803F0FE031370EEE149790F4B1B88ADF81430002336E00D4A32F81320ADF80C209DF80D20FAB90A48825C1DE000BF2842030807
:40318000E442020890780208649308101842030821420308304203086C9308101442030820420308709308102C420308CC7802083C7602080022012A0AD9AD4A12F8132087
:4031C000914205D1AA4A32F81330ADF8143002E00133002BC6D09DF81530FF2B05D104D140F2CA31A348FFF7D3F8BDF81430ADF82430ADF81430C3F3072369789E4AD154D4
:40320000EB78002B40F0968169799C4B1B88ADF81430002319E0964A32F81320ADF810209DF8112012B99648825C00E00022012A0AD98F4A12F81320914205D18C4A32F81A
:403240001330ADF8143002E00133002BE3D09DF81530FF2B05D104D140F2CA318548FFF797F8BDF81430ADF82830ADF81430C3F307230121834AD1545CE1FFF7D5FD59E1EE
:40328000AB7E002B3FD12B7E012B02D100227E4B1A70E97E794B1B88ADF81030002319E0734A32F81320ADF814209DF8152012B97348825C00E00022012A0AD96C4A12F8CD
:4032C0001320914205D16A4A32F81330ADF8103002E00133002BE3D09DF81130FF2B05D104D140F2CA316348FFF752F8BDF81030ADF82C30ADF81030C3F30723FF2B02D07E
:40330000297E624AD1540222614B1A7012E102225F4B1A700EE1FFF787FD5E4B1B7813F0010F00F00781584B1B78012B03D10222554B1A70FEE0032B03D10022524B1A7093
:40334000F8E0022B40F0F68000224F4B1A70524B1B685B68514A1178C1EBC10203EB42039A79002A00F0E6809B88002B00F0E2804B4B1B78002B40F0DD800120FFF7A2FBEB
:40338000002840F0D78001223F4B1A70D2E0FFF74BFDCFE00B88ADF800309DF801301BB90221374AD15405E023B940F286313148FEF7EEFF6A7829882D4B23F812106B788D
:4033C0000021384AD15403EB4302374E9119324B1B6818692B7803EB430303F584531033034433F8060F9B7890538B70687800EB400002213044FFF7E5FA6B7803EB430333
:4034000033449B7898420BD0284B1B680021284898476B7803EB4303981900229A53827029462046FFF700FD84E00B88ADF804309DF805301BB90021114AD15405E023B986
:4034400040F286310B48FEF7A3FF6B7800210D4AD15429462046FFF7E7FC6BE00B88ADF814301723ADF8163005A80EF041FD61E014420308709308101C4203086C93081039
:4034800020420308C478020821420308C8780208184203082842030890780208164203082D4203082C4203082442030894780208040001000A89531E9BB21C2B13D98B893B
:4034C000ADF81430ADF8162012238DF8183001238DF8193005A80EF0FFFC1F4A137803F0FE03137026E00846FFF7E0FB014620B929462046FFF798FC01462846FFF744FC74
:4035000018E0FFF791FC15E0FFF78EFC12E0FFF78BFC0FE0FFF788FC0CE00846FFF708FC29462046FFF780FC04E00C4A137843F001031370084B1B7813F0110F09D0064A97
:40354000137803F0FE031370054B1B682946204698470CB070BD00BF2842030817420308947802080020704730B108B5034A10600348FFF72BFC08BD02487047D878020871
:40358000653508100100160000F1080343604FF0FF328260C360036100230360704700BF00230361704700BF43684B609A688A609A685160996008610368013303607047C1
:4035C00030B40D68B5F1FF3F01D1026907E000F1080200E01A4653681C68A542FAD253684B6099608A605160086103680133036030BC7047036942688168916082684168B2
:4036000051605A68904201D182685A60002202611A68013A1A601868704700BF436A23B1036B1868C0F1070070470020704700BF10B5044601F056FCA26BE36B9A4201D14E
:40364000012400E0002401F06FFC204610BD00BF10B5044601F046FCA36B0BB9012400E0002401F061FC204610BD00BF70B504461646856B026C3AB9036843BB406801F038
:40368000D7F80023636029E06EB9806802F01DFBA268236C1344A3606268934219D32368A36000201AE0C06802F00FFB236C5B42E2681A44E26021688A4202D26268134489
:4036C000E360022E07D145B1013D002006E0002004E0002002E0002000E000200135A56370BD00BF026C72B110B50346C4681444C4604068844201D31868D8600846D96825
:4037000002F0E3FA10BD704738B5054601F0EAFB95F8454064B20AE06B6A53B105F1240000F08CFF08B101F017F8013C64B2002CF2DCFF2385F8453001F0F6FB01F0D2FBEE
:4037400095F8444064B20AE02B6953B105F1100000F074FF08B100F0FFFF013C64B2002CF2DCFF2385F8443001F0DEFB38BD00BF38B540B94FF0200383F31188BFF36F8FAB
:40378000BFF34F8FFEE704460D4601F0ABFB2168E26B236C03FB021060600020A063A160013A02FB0313E360FF2384F8443084F845307DB92369ABB104F1100000F03EFF23
:4037C00080B14FF08052094B1A60BFF34F8FBFF36F8F07E004F11000FFF7D6FE04F12400FFF7D2FE01F0A0FB012038BD04ED00E010B5029B0C4609B91B6000E01A60D863EB
:403800001C6401211846FFF7B3FF10BD40B94FF0200383F31188BFF36F8FBFF34F8FFEE7F0B583B0034611B101FB00F000E000201D4617460C46483001F0FCFC064638B10D
:4038400000903B4600F1480221462846FFF7D0FF304603B0F0BD00BF40B94FF0200383F31188BFF36F8FBFF34F8FFEE7884208D24FF0200383F31188BFF36F8FBFF34F8FE9
:40388000FEE710B50C4602220021FFF7BFFF034600B18463184610BDF0B585B0019240B94FF0200383F31188BFF36F8FBFF34F8FFEE7044619B9026C1AB9012202E0012286
:4038C00000E0002242B94FF0200383F31188BFF36F8FBFF34F8FFEE7022B03D1E26B012A02D102E0012200E0002242B94FF0200383F31188BFF36F8FBFF34F8FFEE71D46EE
:403900000E4600F031FF18B9019B1BB9012302E0012300E0002343B94FF0200383F31188BFF36F8FBFF34F8FFEE7002701F0DAFAA26BE36B9A4201D3022D21D12A46314614
:403940002046FFF793FE636A6BB104F1240000F075FE88B14FF08052324B1A60BFF34F8FBFF36F8F08E038B14FF080522D4B1A60BFF34F8FBFF36F8F01F0D6FA01204EE050
:40398000019B1BB901F0D0FA002048E01FB902A800F098FE012701F0C7FA00F0ADFC01F0A1FA94F844305BB2B3F1FF3F02D1002384F8443094F845305BB2B3F1FF3F02D1F5
:4039C000002384F8453001F0AFFA01A902A800F083FEF0B92046FFF72BFEA0B1019904F1100000F0F3FD2046FFF78EFE00F012FD00289BD14FF080520A4B1A60BFF34F8F6B
:403A0000BFF36F8F92E72046FFF77EFE00F002FD8CE72046FFF778FE00F0FCFC002005B0F0BD00BF04ED00E048B108B5002141600160C1600B460A46FFF72EFF08BD70471D
:403A400010B5024600210120FFF7E0FE0446FFF7EBFF204610BD00BF2DE9F84340B94FF0200383F31188BFF36F8FBFF34F8FFEE7044619B9006C18B9012002E0012000E0CA
:403A8000002040B94FF0200383F31188BFF36F8FBFF34F8FFEE7022B03D1E06B012802D102E0012000E0002040B94FF0200383F31188BFF36F8FBFF34F8FFEE71F46904642
:403AC000894601F021FBEFF311864FF0200383F31188BFF36F8FBFF34F8FA26BE36B9A4201D3022F1ED194F845506DB23A4649462046FFF7BBFDB5F1FF3F0DD1636A9BB157
:403B000004F1240000F09AFD80B1B8F1000F0FD00120C8F800000CE06B1C5BB284F84530012006E0002004E0012002E0012000E0012086F31188BDE8F88300BF40B94FF072
:403B4000200383F31188BFF36F8FBFF34F8FFEE770B50446036C43B14FF0200383F31188BFF36F8FBFF34F8FFEE703681BB943681BB9012302E0012300E0002343B94FF060
:403B8000200383F31188BFF36F8FBFF34F8FFEE70E4601F0B9FAEFF311854FF0200383F31188BFF36F8FBFF34F8FA26BE36B9A4218D294F845305BB20132A263B3F1FF3F44
:403BC0000AD1636A83B104F1240000F037FD68B176B1012030600CE001335BB284F84530012006E0002004E0012002E0012000E0012085F3118870BDF0B585B0019240B9C9
:403C00004FF0200383F31188BFF36F8FBFF34F8FFEE7044619B9036C1BB9012302E0012300E0002343B94FF0200383F31188BFF36F8FBFF34F8FFEE70E4600F095FD18B929
:403C4000019B1BB9012302E0012300E0002343B94FF0200383F31188BFF36F8FBFF34F8FFEE7002701F03EF9A56BC5B131462046FFF738FD013DA563236963B104F110004D
:403C800000F0DCFC38B14FF08052304B1A60BFF34F8FBFF36F8F01F047F9012053E0019B1BB901F041F900204DE01FB902A800F009FD012701F038F900F01EFB01F012F9D9
:403CC00094F844305BB2B3F1FF3F02D1002384F8443094F845305BB2B3F1FF3F02D1002384F8453001F020F901A902A800F0F4FCF0B92046FFF7ACFCA0B1019904F1240029
:403D000000F064FC2046FFF7FFFC00F083FB0028A8D14FF080520D4B1A60BFF34F8FBFF36F8F9FE72046FFF7EFFC00F073FB99E72046FFF7E9FC00F06DFB2046FFF788FC86
:403D400000288FD0002005B0F0BD00BF04ED00E070B584B0019140B94FF0200383F31188BFF36F8FBFF34F8FFEE70446036C43B14FF0200383F31188BFF36F8FBFF34F8FD2
:403D8000FEE700F0F1FC18B9019B1BB9012302E0012300E0002343B94FF0200383F31188BFF36F8FBFF34F8FFEE700252E4601F099F8A36BCBB1013BA363236813B900F013
:403DC000D7FD6060236963B104F1100000F036FC38B14FF08052414B1A60BFF34F8FBFF36F8F01F0A1F8012076E0019B6BB945B14FF0200383F31188BFF36F8FBFF34F8FC0
:403E0000FEE701F091F8002066E01EB902A800F059FC012601F088F800F06EFA01F062F894F844305BB2B3F1FF3F02D1002384F8443094F845305BB2B3F1FF3F02D1002301
:403E400084F8453001F070F801A902A800F044FC40BB2046FFF7FCFBF0B123683BB901F041F8606800F090FC054601F05DF8019904F1240000F0AAFB2046FFF745FC00F032
:403E8000C9FA002893D14FF08052144B1A60BFF34F8FBFF36F8F8AE72046FFF735FC00F0B9FA84E72046FFF72FFC00F0B3FA2046FFF7CEFB00283FF47AAF65B101F012F89F
:403EC0002046FFF7ABFB0146606800F0FBFC01F02BF8002000E0002004B070BD04ED00E000230BE0074A52F8332032B9054A42F8331002EBC303586070470133092BF1D9DD
:403F0000704700BF3C42030870B504460D46164600F0E8FF94F844305BB2B3F1FF3F02D1002384F8443094F845305BB2B3F1FF3F02D1002384F8453000F0F6FFA36B2BB90A
:403F40003246294604F1240000F05AFB2046FFF7DBFB70BD094B9B6A1B680BB9012300E0002323B14FF0FF32044BDA627047034B9A6AD268D2685268DA627047DC7802087F
:403F800010B50446006B01F0DBF9204601F0D8F910BD00BF2DE9F04780460D4616469946DDF820A0099F0A9C9200A521206B01F097FE236B06F18042013A03EB820626F013
:403FC0000706002306E0E95CE21882F83410EA5C12B101330F2BF6D9002384F84330BAF1060F01D94FF0060AC4F82CA0C4F844A00025A564201DFFF7D3FA04F11800FFF714
:40400000CFFA2461CAF10703A36164622B4606E003F1120204EB8202002151600133042BF6D90023236684F864304A464146304600F02EFF206007B13C60BDE8F08700BFB8
:4040400070B5002407E004EB8402930010481844FFF79AFA0134062CF5D90E4C04F1BC063046FFF791FA04F1D0052846FFF78CFA04F11400FFF788FA04F1E400FFF784FA0B
:404080002046FFF781FAA662C4F8F85070BD00BF0C790208DC78020838B5044600F022FF264BD3F8FC200132C3F8FC20D3F800314BB9224BC3F80041D3F8FC30012B10D12D
:4040C000FFF7BEFF0DE01D4BD3F804314BB91B4BD3F80031DA6AE36A9A4202D8174BC3F80041164AD2F808310133C2F80831E36AD2F80C21934202D9104AC2F80C310F4D82
:4041000005F1300003EB83039A00211D1044FFF74BFA00F009FFD5F804316BB1D5F80031DA6AE36A9A4207D24FF08052044B1A60BFF34F8FBFF36F8F38BD00BFDC780208F8
:4041400004ED00E038B517E000F0CCFE0D4CD4F8F030DD68281DFFF74DFAD4F8FC30013BC4F8FC30D4F81031013BC4F8103100F0DBFE2846FFF704FF024BD3F81031002BAE
:40418000E2D138BDDC78020808B5FFF7DBFF064B1B6B012BF9D94FF08052044B1A60BFF34F8FBFF36F8FF0E7DC78020804ED00E070B504460E46174BD3F81451D3F8000156
:4041C0000430FFF717FAB4F1FF3F07D136B11148D0F800110431FFF7E7F970BD2C440D4BD3F800315C60A54208D90A4BD3F8F800D3F800110431FFF7E3F970BD054DA86AA4
:40420000D5F800110431FFF7DBF9EB6A9C4200D2EC6270BDDC7802082DE9F04385B006460F4615469846900001F004F860B18146682000F0FFFF044610B1C0F8309004E039
:40424000484601F07DF800E000248CB10023039302940D9B01930C9B009343462A4639463046FFF797FE2046FFF716FF012001E04FF0FF3005B0BDE8F08300BF00B583B076
:40428000194B019300230093802218491848FFF7C3FF012801D100F0F1FB012814D14FF0200383F31188BFF36F8FBFF34F8F114B4FF0FF32DA620122C3F804210022C3F8B7
:4042C000142100F0B1FE0BE0B0F1FF3F08D14FF0200383F31188BFF36F8FBFF34F8FFEE703B05DF804FB00BFF8790208A893081089410810DC780208034AD2F81831013349
:40430000C2F81831704700BFDC780208014BD3F814017047DC7802082DE9F0413C4BD3F81831002B65D13A4BD3F814410134C3F81441CCB99B6A1B6843B14FF0200383F35F
:404340001188BFF36F8FBFF34F8FFEE7304B9A6AD3F8F8109962C3F8F820D3F820210132C3F82021FFF7F6FD294BDB6A9C4203D2002645E0012600E00026254B9B6A1B685F
:404380000BB9012300E0002323B14FF0FF32204BDA6235E01E4B9B6ADB68DD686B689C4202D21B4AD3622BE005F104084046FFF721F9AB6A1BB105F11800FFF71BF9EB6A0C
:4043C000134AD2F80C21934202D9114AC2F80C310F4F07F1300003EB83039A0041461044FFF7E2F8EA6AD7F80031DB6A9A42C1D2C3E7074AD2F824310133C2F8243100269D
:40440000034BD3F8283103B101263046BDE8F081DC780208394BD3F8183143B94FF0200383F31188BFF36F8FBFF34F8FFEE770B500F058FD314BD3F81821013AC3F8182102
:40444000D3F81831002B52D12C4BD3F8FC303BBB00244FE0294D2B6ADC6804F11800FFF7C9F8261D3046FFF7C5F8E36AD5F80C21934201D9C5F80C31204D05F1300003EB33
:4044800083039A0031461044FFF78EF8E26AD5F80031DB6A9A4204D30122C5F8282100E00024164B5B69002BD4D10CB1FFF752FD124BD3F8244164B1FFF72EFF18B101227E
:4044C0000E4BC3F82821013CF6D100220B4BC3F824210A4BD3F828315BB14FF08052084B1A60BFF34F8FBFF36F8F012402E0002400E0002400F018FD204670BDDC7802081B
:4045000004ED00E0304BD3F8183123B101222E4BC3F82821704710B52B4B0022C3F82821D3F800311B6B1A68B2F1A53F0BD15A68B2F1A53F07D19A68B2F1A53F03D1DB6867
:40454000B3F1A53F07D0204BD3F80001D3F80011343100F005FE1C4BD3F80C310AE043B94FF0200383F31188BFF36F8FBFF34F8FFEE7013B03EB83018A0013490A44126B27
:40458000002AECD008469900CC18A2000244546B64685463303019448A0008320244944206D1606803EB83018A0007490A445063054903EB830082000A44526BD268C1F858
:4045C0000021C1F80C3110BDDC78020840B94FF0200383F31188BFF36F8FBFF34F8FFEE710B50C46054BD3F800111831FEF7E8FF01212046FFF7DCFD10BD00BFDC78020841
:4046000038B540B94FF0200383F31188BFF36F8FBFF34F8FFEE70C461546074AD2F800111831FEF7C1FF0DB14FF0FF3429462046FFF7BEFD38BD00BFDC78020838B5C36847
:40464000DC6844B94FF0200383F31188BFF36F8FBFF34F8FFEE704F118052846FEF7CAFF154BD3F81831ABB9251D2846FEF7C2FFE36A114AD2F80C21934202D90E4AC2F886
:404680000C3103EB83039A0029460C481044FEF78BFF03E029460A48FEF786FFE26A064BD3F80031DB6A9A4204D90120024BC3F8280138BD002038BDDC7802080C7902081B
:4046C000F0780208034BD3F820210260D3F8143143607047DC780208F8B540B94FF0200383F31188BFF36F8FBFF34F8FFEE7054641B94FF0200383F31188BFF36F8FBFF370
:404700004F8FFEE70C4600F0EDFB124BD3F814016968421A2368B3F1FF3F14D02F680D4ED6F82061B74201D088420ED29A4206D29B1A23602846FFF7C5FF002406E00023DB
:404740002360012402E0002400E0012400F0ECFB2046F8BDDC7802080122024BC3F82821704700BFDC780208064BD3F804312BB1044BD3F818311BB90220704701207047D9
:4047800000207047DC780208002849D038B50346C26A2549D1F80011C96A8A4237D28169002906DB2049D1F80011C96AC1F107018161586902EB820291001C4A1144884283
:4047C00001D1012200E00022D2B11D461C1D2046FEF710FF144AD2F80031DB6AEB62D2F80C21934202D9104AC2F80C3103EB83039A0021460D481044FEF7D6FE012038BD59
:40480000094AD2F80021D26ADA62012038BD426C054BD3F80031DB6A9A4203D3002038BD00207047012038BDDC7802080C79020800283DD038B50346204AD2F8002190423A
:4048400008D04FF0200383F31188BFF36F8FBFF34F8FFEE7826C42B94FF0200383F31188BFF36F8FBFF34F8FFEE7013A8264C06A596C88421ED0FAB91C461D1D2846FEF7D1
:40488000B9FE636CE362C3F10702A2610B4AD2F80C21934202D9094AC2F80C3103EB83039A00294606481044FEF77EFE012038BD00207047002038BD002038BDDC78020822
:4048C0000C79020800284DD038B50346806C40B94FF0200383F31188BFF36F8FBFF34F8FFEE75A6C8A4200D20A46D96A8A4238D0012836D11C48D0F80001834208D14FF02E
:40490000200383F31188BFF36F8FBFF34F8FFEE7DA629869002802DBC2F107029A61586901EB81018A0011490A44904201D1012200E00022AAB11C461D1D2846FEF75AFE4B
:40494000E36A094AD2F80C21934202D9064AC2F80C3103EB83039A00294604481044FEF723FE38BD704700BFDC7802080C790208064BD3F800312BB1044BD3F80021936CBB
:4049800001339364014BD3F800017047DC780208064B1A681368B3FA83F35B09036013B9D368186870470020704700BF087A020808B54160006191420AD8D21A83699A42DF
:4049C00011D2011D0A4B5868FEF7FAFD002008BD9A4201D2994208D2011D054B1868FEF7EFFD002008BD012008BD012008BD00BF087A020870B500F075FA0E4B9B68B3B955
:404A00000C4C04F10C063046FEF7BEFD04F120052846FEF7B9FD2660656000220C210A20FEF7F4FEA06010B10349FFF759FA00F07BFA70BD087A0208B09308102DE9F041FD
:404A4000079C41B94FF0200383F31188BFF36F8FBFF34F8FFEE70F4674B11D4616468046FFF7C8FFC4F80080A761E6612562069B6362201DFEF794FDBDE8F08100B583B00E
:404A8000FFF7B8FF0D4B9B6853B10D4B019303230093002380220B490B48FFF7BDFB00E0002040B94FF0200383F31188BFF36F8FBFF34F8FFEE703B05DF804FB087A020809
:404AC0003C7A0208B8930810954D08102DE9F04182B005460E4617469846282000F0AAFB044640B10190089B009343463A4631462846FFF7A3FF204602B0BDE8F08100BFF4
:404B000040B94FF0200383F31188BFF36F8FBFF34F8FFEE730B585B015460446124A9068F0B11A46019102950394052913DCFFF71BFE022807D10023089A01A90A4880683B
:404B4000FEF7AAFE0DE000231A4601A906488068FEF7A2FE05E0002301A9FEF77DFF00E0002005B030BD00BF087A020870B582B029E0DB681E68DC68251D2846FEF73AFD5A
:404B8000636A20469847E369012B1CD1A36933449E4207D2636024612946104B1868FEF70FFD10E0002100910B4632462046FFF7A7FF40B94FF0200383F31188BFF36F8F28
:404BC000BFF34F8FFEE7054B1B681A68002AD0D1024A51681160536002B070BD087A020838B50546FFF792FB0446074B9B6B984204D2FFF7BBFF01232B6001E000232B6091
:404C0000014B9C63204638BD087A020870B582B005460E46134B1B68DB68DC68201DFEF7E9FCE369012B18D1A1692B46324629442046FFF7BDFE80B1002100910B462A4651
:404C40002046FFF75DFF40B94FF0200383F31188BFF36F8FBFF34F8FFEE7636A2046984702B070BD087A020870B582B006460C46FFF742FB01A8FFF7B3FF019B1BBB05463A
:404C800044B9B04206D3FFF7C5FB29463046FFF7BDFF1AE02CB10E4B5B681C68B4FA84F464092246711B0A4B9868FFF72DF9FFF7B1FB50B94FF08052064B1A60BFF34F8F59
:404CC000BFF36F8F01E0FFF7A5FB02B070BD00BF087A020804ED00E030B587B04DE0039B002B4ADB059C636913B1201DFEF782FC02A8FFF775FF039B092B3ED8DFE803F0C4
:404D00000505053D273A05053D270499A5690B46024629442046FFF74BFE70B3636A20469847E369012B28D1A269002100910B46049802442046FFF7E3FEF0B94FF0200324
:404D400083F31188BFF36F8FBFF34F8FFEE70499A16141B94FF0200383F31188BFF36F8FBFF34F8FFEE70346024601442046FFF71FFE02E0204600F0E3FA002203A9044B4F
:404D80009868FEF739FF0028A9D107B030BD00BF087A020800B583B001A8FFF7F9FD0199FFF762FFFFF798FFF6E700BF40B94FF0200383F31188BFF36F8FBFF34F8FFEE70F
:404DC0000068704740B94FF0200383F31188BFF36F8FBFF34F8FFEE710B5044600F082F8246A00F0A1F8204610BD00BF38B540B94FF0200383F31188BFF36F8FBFF34F8FEC
:404E0000FEE704460D4600F06DF8256200F08CF838BD00BF82B0002301930D4B1B68B3F1FF3F08D04FF0200383F31188BFF36F8FBFF34F8FFEE74FF0200383F31188BFF3B5
:404E40006F8FBFF34F8F019B002BFCD002B07047E842020808480068006880F308884FF0000080F3148862B661B6BFF34F8FBFF36F8F00DF00BF000008ED00E0DFF80C003E
:404E8000016841F4700101607047000088ED00E04FF0807340F8043C21F0010140F8081C054B40F80C3C40F8202C6FF0020340F8243C4438704700BF154E081000000000A0
:404EC000074B19680868B0E8F04F80F30988BFF36F8F4FF0000080F311887047AFF30080DC7902084FF0200383F31188BFF36F8FBFF34F8F0A4A136801331360012B0DD130
:404F0000084B1B6813F0FF0F08D04FF0200383F31188BFF36F8FBFF34F8FFEE7704700BFE842020804ED00E0094B1B6843B94FF0200383F31188BFF36F8FBFF34F8FFEE738
:404F4000013B034A13600BB983F31188704700BFE8420208000000000000000000000000EFF30980BFF36F8F154B1A681EF0100F08BF20ED108A20E9F04F10602DE9090049
:404F80004FF0200080F31188BFF34F8FBFF36F8FFFF7B8FA4FF0000080F3118809BC19680868B0E8F04F1EF0100F08BFB0EC108A80F30988BFF36F8F704700BFAFF3008050
:404FC000DC79020808B54FF0200383F31188BFF36F8FBFF34F8FFFF79FF918B14FF08052024B1A60002383F3118808BD04ED00E0084A0023136008490B60084B1B68084922
:40500000A1FB03139B09013B06490B6007231360704700BF10E000E018E000E0A0420208D34D621014E000E010B582B0314B1A78D2B20192FF221A701B78DBB28DF8033078
:405040009DF803302C4A03F0200313700723536009E0294A5368013B53609DF803305B00DBB28DF803309DF8033013F0800FF0D1214B5B68C3F10702032A08D04FF02003A0
:4050800083F31188BFF36F8FBFF34F8FFEE7032A08D04FF0200383F31188BFF36F8FBFF34F8FFEE71B0203F4E063134A5360019BDBB2104A1370114B1A6842F47F021A60A5
:4050C0001A6842F07F421A60FFF792FF00240C4B1C60FFF7D3FE0B4A136843F040431360FFF7B8FEFFF70EFAFFF794FE204602B010BD00BF00E400E0447A020820ED00E034
:40510000E842020834EF00E0EFF305830F2B0FD9104A9B5CDBB2104A1278934208D24FF0200383F31188BFF36F8FBFF34F8FFEE70A4B1B6803F4E063074A5268934208D9D2
:405140004FF0200383F31188BFF36F8FBFF34F8FFEE77047F0E300E0447A02080CED00E008B54FF0200383F31188BFF36F8FBFF34F8F4FF441710248FDF70AF9FEE700BF46
:40518000C0930810134A12F0070F07D0D11D21F00701C1F5404313440A4601E04FF440430D49C1F858250020C1F85C051344083B23F00703C1F8603558601860981A50604D
:4051C0001360C1F86405C1F868054FF00043C1F86C3570474C7A0208F4340308134B00E013461A688242FBD310B45C681919884203D14168214459601846446801198A42A4
:405200000DD10B49D1F860158A4206D05268224442601A681268026002E0016000E00260984200D018605DF8044B70474C3A0308F434030870B50446FFF75EF83F4BD3F866
:4052400060350BB9FFF79EFF3C4BD3F86C351C425CD194B1083414F0070F0ED024F00704083404F0070343B14FF0200383F31188BFF36F8FBFF34F8FFEE7002C48D02F4BAA
:40528000D3F868359C4245D82C4BD3F8585503F5AB6301E02B4615466A68944202D92A68002AF7D1254AD2F86025954234D01E6808362A681A606B681B1B102B10D928190B
:4052C00010F0070F08D04FF0200383F31188BFF36F8FBFF34F8FFEE743606C60FFF77EFF6A681649D1F868359B1AC1F86835D1F864158B4202D21149C1F864350F4BD3F8F2
:405300006C351A436A6000232B6006E0002604E0002602E0002600E00026FFF77BF816F0070F08D04FF0200383F31188BFF36F8FBFF34F8FFEE7304670BD00BFF43403084B
:40534000B8B338B50346A0F1080550F8042C1949D1F86C1512EA010408D14FF0200383F31188BFF36F8FBFF34F8FFEE750F8080C40B14FF0200383F31188BFF36F8FBFF33A
:405380004F8FFEE7A4B198B91C4622EA010243F8042CFEF7B1FF54F8043C064AD2F868150B44C2F868352846FFF718FFFFF732F838BD7047F434030870B539B900240AE09B
:4053C00015F8010BFBF7B6FD013402E016460D460024B442F4DB204670BD00BF70B561B900240FE0FBF7B2FDC0B2287001340A2808D00D2806D0013502E016460D460024BC
:40540000B442EFDB204670BD08B502490248FCF7D3FE08BD8C4203080000664008B5114B1B785BB9104A11491148FCF7A1FC11491148FCF759FF01220A4B1A700E4BB3F95D
:405440000030002B08DB590903F01F03012202FA03F30A4A42F82130054A136843F00043136008BD643A03088C420308109408100000664009540810548E081000E100E0F7
:4054800088B108B5094AD062094B1B7833B91046FDF792F90122064B1A7000E0002020B9FDF7B4F908BD0348704708BDEC420208653A03080100160008B5084B1B783BB935
:4054C000074A00210748FDF73FF80122034B1A70044B01229A609A6108BD00BF6A3A0308C89608100000384008B5084B1B783BB9074A01210748FDF727F80122034B1A70D6
:40550000044B02229A609A6108BD00BF6B3A03082C9708100000384081F0004102E000BF83F0004330B54FEA41044FEA430594EA050F08BF90EA020F1FBF54EA000C55EA44
:40554000020C7FEA645C7FEA655C00F0E2804FEA5454D4EB5555B8BF6D420CDD2C4480EA020281EA030382EA000083EA010180EA020281EA0303362D88BF30BD11F0004F2F
:405580004FEA01314FF4801C4CEA113102D0404261EB410113F0004F4FEA03334CEA133302D0524263EB430394EA050F00F0A780A4F10104D5F1200E0DDB02FA0EFC22FACF
:4055C00005F2801841F1000103FA0EF2801843FA05F359410EE0A5F120050EF1200E012A03FA0EFC28BF4CF0020C43FA05F3C01851EBE37101F0004507D54FF0000EDCF183
:40560000000C7EEB00006EEB0101B1F5801F1BD3B1F5001F0CD349085FEA30004FEA3C0C04F101044FEA445212F5800F80F09A80BCF1004F08BF5FEA500C50F1000041EBBA
:40564000045141EA050130BD5FEA4C0C404141EB010111F4801FA4F10104E9D191F0000F04BF01460020B1FA81F308BF2033A3F10B03B3F120020CDA0C3208DD02F1140CF8
:40568000C2F10C0201FA0CF021FA02F10CE002F11402D8BFC2F1200C01FA02F120FA0CFCDCBF41EA0C019040E41AA2BF01EB0451294330BD6FEA04041F3C1CDA0C340EDC31
:4056C00004F11404C4F1200220FA04F001FA02F340EA030021FA04F345EA030130BDC4F10C04C4F1200220FA02F001FA04F340EA0300294630BD21FA04F0294630BD94F057
:40570000000F83F4801306BF81F480110134013D4EE77FEA645C18BF7FEA655C29D094EA050F08BF90EA020F05D054EA000C04BF1946104630BD91EA030F1EBF00210020A7
:4057400030BD5FEA545C05D14000494128BF41F0004130BD14F580043CBF01F5801130BD01F0004545F0FE4141F470014FF0000030BD7FEA645C1ABF194610467FEA655C04
:405780001CBF0B46024650EA013406BF52EA033591EA030F41F4002130BD00BF90F0000F04BF0021704730B54FF4806404F132044FF000054FF0000150E700BF90F0000FD4
:4057C00004BF0021704730B54FF4806404F1320410F0004548BF40424FF000013EE700BF42004FEAE2014FEA31014FEA02701FBF12F07F4393F07F4F81F06051704792F023
:40580000000F14BF93F07F4F704730B54FF4607401F0004521F0004120E700BF50EA010208BF704730B54FF000050AE050EA010208BF704730B511F0004502D5404261EBDB
:4058400041014FF4806404F132045FEA915C3FF4DCAE4FF003025FEADC0C18BF03325FEADC0C18BF033202EBDC02C2F1200300FA03FC20FA02F001FA03FE40EA0E0021FAEE
:4058800002F11444C1E600BF70B54FF0FF0C4CF4E06C1CEA11541DBF1CEA135594EA0C0F95EA0C0F00F0DEF82C4481EA030621EA4C5123EA4C5350EA013518BF52EA03359B
:4058C00041F4801143F4801338D0A0FB02CE4FF00005E1FB02E506F00042E0FB03E54FF00006E1FB03569CF0000F18BF4EF0010EA4F1FF04B6F5007F64F5407404D25FEA7C
:405900004E0E6D4146EB060642EAC62141EA55514FEAC52040EA5E504FEACE2EB4F1FD0C88BFBCF5E06F1ED8BEF1004F08BF5FEA500E50F1000041EB045170BD06F000468F
:4059400046EA010140EA020081EA0301B4EB5C04C2BFD4EB0C0541EA045170BD41F480114FF0000E013C00F3AB8014F1360FDEBF002001F0004170BDC4F10004203C35DA65
:405980000C341BDC04F11404C4F1200500FA05F320FA04F001FA05F240EA020001F0004221F0004110EBD37021FA04F642EB06015EEA430E08BF20EAD37070BDC4F10C0400
:4059C000C4F1200500FA04F320FA05F001FA04F240EA020001F0004110EBD37041F100015EEA430E08BF20EAD37070BDC4F1200500FA05F24EEA020E20FA04F301FA05F21D
:405A000043EA020321FA04F001F0004121FA04F220EA020000EBD3705EEA430E08BF20EAD37070BD94F0000F0FD101F00046400041EB010111F4801F08BF013CF7D041EA1C
:405A4000060195F0000F18BF704703F00046520043EB030313F4801F08BF013DF7D043EA0603704794EA0C0F0CEA135518BF95EA0C0F0CD050EA410618BF52EA4306D1D11C
:405A800081EA030101F000414FF0000070BD50EA410606BF1046194652EA430619D094EA0C0F02D150EA013613D195EA0C0F05D152EA03361CBF104619460AD181EA0301F0
:405AC00001F0004141F0FE4141F470014FF0000070BD41F0FE4141F4780170BD70B54FF0FF0C4CF4E06C1CEA11541DBF1CEA135594EA0C0F95EA0C0F00F0A7F8A4EB05049D
:405B000081EA030E52EA03354FEA013100F088804FEA03334FF0805545EA131343EA12634FEA022245EA111545EA10654FEA00260EF000419D4208BF964244F1FD0404F5F7
:405B4000407402D25B084FEA3202B61A65EB03055B084FEA32024FF480104FF4002CB6EB020E75EB030E22BFB61A754640EA0C005B084FEA3202B6EB020E75EB030E22BFFC
:405B8000B61A754640EA5C005B084FEA3202B6EB020E75EB030E22BFB61A754640EA9C005B084FEA3202B6EB020E75EB030E22BFB61A754640EADC0055EA060E18D04FEAD8
:405BC000051545EA16754FEA06164FEAC30343EA52734FEAC2025FEA1C1CC0D111F4801F0BD141EA00014FF000004FF0004CB6E711F4801F04BF01430020B4F1FD0C88BFA9
:405C0000BCF5E06F3FF6AFAEB5EB030C04BFB6EB020C5FEA500C50F1000041EB045170BD0EF0004E4EEA113114EB5C04C2BFD4EB0C0541EA045170BD41F480114FF0000EE7
:405C4000013C90E645EA060E8DE60CEA135594EA0C0F08BF95EA0C0F3FF43BAF94EA0C0F0AD150EA01347FF434AF95EA0C0F7FF425AF104619462CE795EA0C0F06D152EAB7
:405C800003353FF4FDAE1046194622E750EA410618BF52EA43067FF4C5AE50EA41047FF40DAF52EA43057FF4EBAE12E710B501390244904207D010F8013B11F8014FA342A6
:405CC000F7D0181B10BD002010BD10B5431E0A44914204D011F8014B03F8014FF8E710BD02440346934202D003F8011BFAE770472DE9F04788B0002B149F1299109EDDF813
:405D00004CA01D4627F02007BBBF03F100431D4600232D231446B8BF1446462F0B7003D0452F03D1013601E0032300E0022307AA049206AA03928DE8480422462B4600F0C0
:405D4000DBFE472F804602D1119BDB0728D5462F08EB060911D198F80030302B0AD1002200232046294602F085FC18B9C6F10106CAF80060DAF80030994400220023204699
:405D8000294602F077FC08B9302202E0CDF81C9006E0079B994503D9591C07911A70F8E7079B159AC8EB03034046136008B0BDE8F08773B503460029B8BF494203F8022B56
:405DC000B4BF2D222B220929427019DD0DF1070216460A2591FBF5F405FB14113031092C02F8011D2146F5DC3031541E02F8011CB4421A460AD214F8012B03F8012BF7E74F
:405E000030241A46214402F8024B5970101A02B070BD00002DE9F04F91B00C46DDF8688016461F46054601F07FFD03680893184600F0F4FC00230E93D8F800300990073337
:405E400023F0070303F1080294F818A0D4F800B0C8F80020D3E90023C4E91223D4E9128929F000430B93CDF828804FF0FF32A74BDDE90A0102F030FCA0B94FF0FF32A34BDF
:405E8000DDE90A0102F00AFC60B9002200234046494602F0F9FB10B12D2384F843309C4B9C4A0AE042464B464046494602F014FC002800F09281984B984ABAF1470F8CBF9D
:405EC00090469846032323612BF0040323604FF000093DE0BAF1670F00F08A81BAF1470F00F08681236000210DF133020193636805900292009342464B460691CDF810A00F
:405F0000CDF80CE02846FFF7F3FE0AF0DF03472B804600F08481BAF1650F0D9900F28D810139524604F150000D91FFF742FF0E9A8318012A8146236100F37C812268D10796
:405F400000F178819DF8333013B12D2384F84330009733460FAA2146284600F09FF9013002D14FF0FF3096E123685A0501D4236965E0BAF1650F40F2D58000220023D4E9F5
:405F8000120102F077FB78B30123654A31462846B8470130E5D00E9B0D9A9A420BDB2368D80708D423689B0740F111814FF0000804F1190906E1099B089A31462846B847EB
:405FC0000130CED04FF0000804F11A090E9B013B9845E7DA01234A4631462846B8470130BFD008F10108F1E70D9B002B29DC01234B4A31462846B8470130B2D00D9B23B912
:406000000E9B13B92368D907CCD5099B089A31462846B8470130A4D04FF0000904F11A0A0D9B5B42994509DA0123524631462846B847013095D009F10109F1E70E9B424666
:40604000A7E00E9AA36D9A42A8BF1A46002A914606DC4FF0000A29EAE97904F11A0B11E01346314642462846B8470130F1D178E701235A4631462846B84701303FF471AF4F
:406080000AF1010AA36DC9EB03029245F0DB08EB03090D9A0E9B9A420FDB2368DA070CD40E9B0D9A9844C9EB08089B1A9845A8BF9846B8F1000F08DC0FE0099B089A3146FF
:4060C0002846B8470130EBD14BE743464A4631462846B84701303FF444AF4FF0000928EAE87804F11A0A09E00123524631462846B84701303FF435AF09F101090D9A0E9BC8
:406100009B1AC8EB03039945EEDB4BE7FFFFEF7F749C0810789C08107C9C0810809C0810849C08100E9A012A01DCDB0738D50123424631462846B84701303FF412AF099BC4
:40614000089A31462846B84701303FF40AAF00220023D4E9120102F08DFA20B14FF0000804F11A0A0EE00E9B08F10102013B19E00123524631462846B84701303FF4F1AE52
:4061800008F101080E9B013B9845F1DB4B4604F1500231462846B84701307FF403AFE0E60123424631462846B8470130EED1D8E601234A4631462846B84701303FF4D1AEBE
:4061C00008F10108E3680F9A9B1A9845F0DBE0680F9B9842B8BF18465DE06268531C0EA84BF480630DF1340E7FF474AE062201E012B90122626075E6002106910DF133018A
:406200008DE80C00236005904246CDF810A0CDF80CE002914B462846FFF76AFD80460D9BD81C02DB626893421DDDAAF1020A5FFA8AFA70E60133236184E6BAF1660F14D14F
:406240000029636807DD216113B92268D2071DD501330B4419E013B92268D00701D5023313E0012311E04FF0670A0D9B0E9A934205DB22682361D10708D5013305E0002B2B
:40628000D4BFC3F102030123134423610D9BA3654FF0000956E611B0BDE8F08F2DE9F04791461F460A698B68DDF820809342B8BF1346C9F8003091F8432006460C4612B133
:4062C0000133C9F800302368990642BFD9F800300233C9F80030256815F0060510D104F1190A07E00123524639463046C04701301AD00135E368D9F800209B1A9D42F1DB05
:4063000094F843302268003318BF012392060FD5E1185A1C302081F84300224494F8451082F84310023303E04FF0FF30BDE8F08704F1430239463046C0470130F4D0226844
:40634000D9F80050E36802F00602042A08BF5D1B2269A3680CBF25EAE57500259342C4BF9B1AED184FF000091A344D4509D00123224639463046C0470130D5D009F10109E6
:40638000F3E70020BDE8F0872DE9F04317460A7E85B06E2A984606460C460C9B01F1430E00F0AE8011D8632A22D009D8002A00F0BB80582A40F0CA8081F84520834955E0CF
:4063C000642A1ED0692A1CD0C0E0732A00F0B08009D86F2A2ED0702A40F0B8800A6842F020020A603EE0752A24D0782A3AD0ADE01A6801F14205111D1960136884F84230E6
:40640000A8E021681A6811F0800F02D0111D196008E011F0400F02F10401196002D0B2F9003000E01368002B3CDA2D225B4284F8432037E021681A6811F0800F02D0111D51
:40644000196007E011F0400F02F10401196001D0138800E01368227E5C496F2A14BF0A2208221BE078225A4984F845202268186812F0800F00F104051D6003D1550601D5FD
:40648000038800E00368D00744BF42F0200222601BB9226822F0200222601022002084F8430001E049490A226568A560002D08DB206820F0040020602BB9002D7DD175467A
:4064C0000CE0002B79D07546B3FBF2F002FB1033CB5C05F8013D03460028F5D1082A0BD12368DA0708D5236962689A42DEBF302305F8013C05F1FF35C5EB0E0323612EE0E8
:4065000008681A68496910F0800F03D0101D1860136808E010F0400F02F104001860136801D0198000E0196000232361754616E01A68111D1960156862680021284601F009
:406540005FFA08B1401B6060636804E004F1420584F8422001232361002384F84330CDF800803B4603AA21463046FFF797FE013002D14FF0FF3026E023692A463946304627
:40658000C0470130F5D023689B0710D5002504F1190907E001234A4639463046C0470130E7D00135E368039A9B1A9D42F2DBE068039B9842B8BF184605E00B7884F84230A7
:4065C00004F142058AE705B0BDE8F083869C0810979C08100FB40A4B13B51C6824B1A36913B9204601F016F905AB049AA1680193204601F00FFE02B0BDE8104004B07047C4
:40660000E046020870B50E46054618B183690BB901F000F9AB69AC6813B9284601F0FAF8224B9C4201D16C6808E0214B9C4201D1AC6803E01F4B9C4208BFEC68A3891B0721
:4066400001D523693BB92146284600F057F910B14FF0FF3070BD013EA36816F8011F013BA36091B1002B04DAA269934206DB0A2904D023685A1C22601970EDE722462846D3
:4066800000F0E8F80130E7D1E2E7002B08DA22460A21284600F0DEF80130D9D00A2070BD23680A205A1C2260187070BDB89C0810D89C0810F89C0810024B01461868FFF743
:4066C000A1BF00BFE04602082DE9F7431D464F4B1E6804460F46904626B1B36913B9304601F098F84A4B9C4201D1746808E0494B9C4201D1B46803E0474B9C4208BFF4686E
:40670000B8F1020F04D0B8F1010F79D8002D77DB2146304601F014F8616B41B104F14403994202D0304601F09FFC002363630023A3616360A3891B0603D52169304601F0D6
:4067400093FCA38923F44A6323F00303B8F1020FA3811ED001AB6A462146304601F0E8F8A3891843A0810DB9009D00E02FBB284601F03EF90746D0B9DDF80090A94502D144
:406780004FF0FF3006E0484601F032F9074678B9F6E70020A38943F00203A3810023A36004F1470323602361012363612AE0A946A38943F08003A3814D46B36913B9304694
:4067C00001F028F8B8F1010F08BFA389276004BF43F00103A381A389276103F0080080B2656158B113F001034FF000001DBF6D42A060A561A56008BF184603E0A06001E0C2
:406800004FF0FF3003B0BDE8F08300BFE0460208B89C0810D89C0810F89C0810034613F8012B002AFBD1181A0138704710B5034642B111F8014B03F8014B013A002CF7D128
:406840001A4400E010BD934202D003F8014BFAE710BD0000F8B50F461446064618B183690BB900F0D7FF224B9C4201D1746808E0204B9C4201D1B46803E01F4B9C4208BF80
:40688000F468A369A360A3891A0709D523693BB123682069181A63699842FDB20FDB08E02146304600F02AF80028F1D04FF0FF30F8BD2146304600F043FF0028F6D1A36859
:4068C000013BA36023685A1C22601F706269431C934204D0A389DB0707D50A2D05D12146304600F02DFF0028E0D12846F8BD00BFB89C0810D89C0810F89C0810324B70B583
:406900001D6806460C4625B1AB6913B9284600F081FF2E4B9C4201D16C6808E02C4B9C4201D1AC6803E02B4B9C4208BFEC68B4F90C309AB215071DD4D00602D40922326083
:406940003AE0510712D5616B41B104F14403994202D0304601F088FB00236363A38923F02403A3810023636023692360A38943F00803A38123694BB9A38903F42073B3F549
:40698000007F03D02146304600F0F6FFA28912F0010305D00023A36063695B42A36103E0920758BF6369A36023695BB9B4F90C3003F0800080B230B143F04003A3814FF0E0
:4069C000FF3070BD002070BDE0460208B89C0810D89C0810F89C08102DE9F74F03690C699C42804600F38380013C01F114074FEA840E00F1140657F8245006EB0E030193CA
:406A0000013556F82430B3FBF5F507EB0E09002D39D04FF0000A3846B446D34650F8042B93B205FB03A34FEA134A9BB2C3EB0B03120CBCF800B005FB02A213FA8BF34FEAE2
:406A4000124A1FFA82FBDCF80020CBEB124202EB23429BB243EA024381454FEA224B4CF8043BDBD256F80E306BB9019B043B9E421A4602D3C8F8104005E01268043B002A01
:406A8000F8D1013CF3E7404601F017FA00282CDB013530464FF0000E57F8041BD0F800C08AB2C2EB0E03090C13FA8CF3C1EB1C4202EB23429BB243EA0243B9454FEA224EF3
:406AC00040F8043BE8D256F8242006EB840362B9043B9E421A4602D3C8F8104005E01268043B002AF8D1013CF3E7284600E0002003B0BDE8F08F00002DE9F04F456A97B0A4
:406B00008246239CCDE9022345B9102000F070FFCAF82400456085600560C560DAF82430196859B15A684A60012393408B60504600F0EBFFDAF8243000221A60039BA04AB3
:406B4000002BBFBF01232360039B23F00043B8BF0393DDF80C80A4BF0023236028F000431B0D1B0593421DD1229A42F20F731360029B43B9934A944BC8F31300002814BFF1
:406B80001846104600E09048249B002B00F04A85C37813B100F1080300E0C31C249A136000F040BDDDE90245002200232046294601F060FD074658B1229A01231360249B0B
:406BC000002B00F0228581481860013800F02ABD14AB019315AB009322462B46504601F0E7F9C8F30A56059056B1C5F3130343F07F51204641F44011A6F2FF3611971DE0B6
:406C0000159B149E1E4406F23243202B0ADD029A06F21240C3F1400322FA00F008FA03F3184304E0C3F12000029B03FA00F0FEF7B5FD0123A1F1F871013E11930022644BF9
:406C4000FEF76EFC58A3D3E90023FEF71DFE58A3D3E90023FEF766FC044630460D46FEF7ADFD55A3D3E90023FEF70EFE02460B4620462946FEF756FC04460D4601F042FD8E
:406C80000022834600232046294601F0FDFC58B15846FEF793FD02460B462046294601F0E9FC08B90BF1FF3BBBF1160F0DD8494901EBCB01DDE90223D1E9000101F002FD0A
:406CC00030B10BF1FF3B002300E00123109300E01090149B9E1B731E089343BFC3F10009002308934FF00009BBF1000F07DB089BCDF834B05B4408930023099306E0CBF156
:406D0000000309930023CBEB09090D93209B092B27D8052BC4BF043B2093209BA3F10203CCBF00250125032B20D8DFE803F0060E0204012302E0012308E000230C93219BE2
:406D4000002B1CDD069398461EE000230C93219B5B4403F1010806934346012BB8BF012312E00125002320930C9501E001230C934FF0FF33069398460022122303E00123FE
:406D8000069398461A462192DAF8244000226260042101F114029A421ED86268013262604900F6E7AFF3008061436F63A787D23FB3C8608B288AC63FFB799F501344D33F8B
:406DC0000000F07FA89C0810B19C0810859C08100000F83F589D08106168504600F060FEDAF8243020601B680793B8F10E0F00F25D81002D00F05A819DED027BBBF1000F26
:406E00008DED0E7B31DDA04A0BF00F0302EBC30393ED007B4FEA2B14E2068DED0A7B0CD59A4BDDE90E01D3E90823FEF757FE04F00F04CDE90201032600E00226934D6CB183
:406E4000E30708D5DDE90A01D5E90023FEF71CFDCDE90A01013664100835F0E7DDE90A23DDE90201FEF73AFE20E0CBF1000404B3854B864D04F00F0203EBC203D3E9002371
:406E8000DDE90E01FEF700FDCDE9020124110023022654B1E70705D5D5E90023FEF7F4FC0136012364100835F3E71BB1CDE9020100E00226109BEBB1DDE902450022744B97
:406EC0002046294601F0E0FBA0B1B8F1000F11D0069B002B40F3E6800BF1FF330A9300226C4B20462946FEF7CFFC0136CDE90201069F02E0CDF828B047463046FEF75EFC03
:406F0000DDE90223FEF7C0FC0022634BFEF70AFB0446A1F15075CFB90022604BDDE90201FEF7FEFA22462B46CDE9020101F0CAFB002840F04182224605F10043DDE9020172
:406F400001F0A2FB002840F02E82ABE00C9A4E4B791E002A4AD003EBC103D3E9002300204F49FEF7BBFD22462B46FEF7D9FA079C05460E46DDE9020101F0C4FB1290FEF7ED
:406F80001DFC02460B46DDE90201FEF7C9FA129B303304F8013B2A463346CDE9020101F073FB002840F02183DDE9022300203849FEF7B6FA2A46334601F066FB002840F095
:406FC000D280079BE31ABB426CDA0022314B28463146FEF759FC002205460E462D4BDDE90201FEF751FCCDE90201C3E703EBC10122462B46D1E90001FEF746FC079BCDE916
:407000001201DC191D46DDE9020101F07BFB0646FEF7D4FB303602460B46DDE90201FEF77FFA05F8016BAC42CDE902014FF0000223D11B4BDDE91201FEF774FA02460B46EF
:40704000DDE9020101F03EFB002840F08C80DDE9122300201249FEF763FA02460B46DDE9020101F011FBE8B114F8013C302B04F1FF3240F0BA821446F6E7064BFEF704FC46
:40708000CDE90201BFE700BF589D0810309D08100000F03F0000244000001C40000014400000E03FDDE90E34CDE90234159B002B7CDBBBF10E0F79DC8F4B03EBCB03D3E9C8
:4070C0000067219B002B14DAB8F1000F11DC40F06C810022894B30463946FEF7D5FBDDE9022301F0E5FA45464646002840F05F8166E1079C32463B46DDE90201FEF7EEFC4D
:4071000001F000FB0546FEF759FB32463B46FEF7BBFB0B460246DDE90201FEF701FA05F1300E04F801EB079BC3EB040EF045CDE902012ED102460B46FEF7F4F9804689465E
:4071400002460B463046394601F09EFA78B942464B463046394601F08DFA002800F04782E90704D443E2DDF828B000E01C4614F8012C392A04F1FF3307D1079A9A42F5D1A6
:40718000079930220BF1010B0A701A7801321A702DE200225A4BFEF777FB00220023CDE9020101F067FA0028A4D020E20C9A002A2DD0209A012A0ADC119A12B103F2334370
:4071C00002E0149BC3F13603099D4C4615E0099B08F1FF35AB42BFBF099B0995EA1A0D9BB7BF9B185D1B0D930025B8F1000FB9BFC8EB090400234C464346089A01211A4404
:4072000050469944089200F01FFD064602E0099D0C9E4C465CB1089B002B08DDA342089AA8BF2346C3EB0909E41AD31A0893099B002B1DDD0C9BABB185B131462A46504649
