:020000041000EA
:4000000000400208230100100D00000085010010000000000000000000000000000000000000000000000000000000008101001000000000000000008101001081010010E9
:400040008101001081010010810100108101001081010010810100108101001081010010810100108101001081010010810100108101001081010010810100108101001060
:400080008101001081010010810100108101001081010010810100108101001081010010810100108101001081010010810100108101001081010010810100108101001020
:4000C00010B5064C2378002B07D1054B002B02D0044800E000BF0123237010BD0C15000800000000A06E0010084B10B5002B03D00749084800E000BF07480368002B00D13D
:4001000010BD064B002BFBD09847F9E70000000010150008A06E001048020008000000007047FFF7FDFF72B60F4C104DAC4209DA21686268A368043B02DBC858D050FAE75A
:400140000C34F3E70A490B4A0020521A02DD043A8850FCDC084809490860BFF34F8F00F00BF900F01DF8FEE794B50110ACB501100C150008482200080000000808ED00E0A8
:40018000FEE7FEE700B504207146084202D0EFF3098001E0EFF30880043001F0D5FFFEE710B562B6002003F00FFB034800F06AF906F054FFFCE7C0460000081010B500206E
:4001C00001F09AFB10BDC04670B56249E0239B00CB580F2213401A00D0329200525807210A40032A05D0042A06D0002A12D15A4814E05A4A106811E01A00C03292005549D5
:4002000052581F210A40112A06D0132A04D0FA20C00103E0524801E080200002002B36D14C4BB222D2009A5801211140B125ED005A59120F032422405B591B0F1C4207D086
:40024000444C63591B0F03242340012B02D102E0012300E00023002B01D0002901D1032A4BD13C4BB022D2009D58AD03AD0B3D495958C904C90C9C58240E01231C400134FA
:4002800003F0B2FA6843210003F0AEFA35E0012B33D1304BC822D2009A5801251540C024E4001A59120F03210A401B591B0F194207D028490B591B0F03210B40012B02D148
:4002C00002E0012300E00023002B01D0002D01D1032A12D11F4DC022D200AB587F210B40A958090A1F263140AC58240C3440584303F07AFA210003F077FAE0239B00154AE6
:40030000D3581B0903221340D840144C6060164B1D692D0AFC32154001351969090E013103F062FAA060290003F05EFA0500E06020610E4BC0180E4903F056FA20750D4BDB
:40034000E818FA21890003F04FFAA061C003E06170BDC0460000264000127A00C000000800366E0184050000000021403F420F0040420F00E703000010B5284802F08EFB61
:40038000274CB022D200A3585B005B08A350E0218900635830208343635080235B04A350204A214BE250A02292010433E250FF221E4BE25002F060FBC0225200A358012157
:4003C0008B43A35000F07EFAFFF7FEFEB0235B055B78002B04D0B0235B055B78DBB200E02123212B03D1124B0022DA605A60114C22008021042000F0C7FF2000103001F048
:40040000A1F80D4B1A685123D35C002B02D00B4801F00EF900F0F2FB10BDC046FC6100100000264001000200840500008C050000E00023402815000844220008485300101D
:400440008023024AD3580320184070470000214010B501F00AFF084980228C58074B2340074C23438B508823034AD358DB06FAD501F0FFFE10BDC04600002140FCFF000000
:400480000100FA0570B50500830504D0E821FF310F4801F023FE01F0E8FE0400FFF7D0FF032801D1FFF7D4FF0A4AB0239B00D55080215058084B0340084803435350882304
:4004C000044AD358DB06FAD5200001F0D2FE70BD7C53001000002140FCFF00000300FA05FEE7C046F0B50025002711E0BB00C658F3B2FF22964308E06A008A181478A41906
:40050000527822700135013BDBB2002BF4D10137002FEBD0F0BDC046014A024B1A60704701001180000E1F4110B50A00002104F0DBFE10BD10B504F0CEFE10BD30B587B0DA
:40054000CB4A116808230B431360CA4C03E0012001F0B8FD013CC64B1B695B0701D4002CF5D1002C01D1C44B00E00023002B02D00520FFF7B5FFC148A021C9004358032217
:400580009343023A134343500332BD4901A804F0A2FE01A802F0C6FFBA4A116808688823CB58C3181868B849084018601368186884241B59C01803681B021B0A80256D04DF
:4005C0002B430360106805680359EB1818680140196013683E229A5C002A06D0A748E02189004258753CA24342503E229A5C002A06D0A248E021890042583024A243425071
:400600003E229B5C002B07D09C49E02292008B588020000603438B500021012001F0EAF90021022001F0E6F90021032001F0E2F90021042001F0DEF90021002001F0DAF9F3
:4006400001A802008E4B043332CB32C212CB12C201F024FA002802D00420FFF741FF87498A4A8B588020000603438B50884801F0CFFA002802D00420FFF732FF7F4C854B02
:40068000E158854A0A40E250E158844A0A40E250E25880252D062A43E250043BE158804A0A40E250E1587F4A0A40802189010A43E250E258802109020A43E2506C4A11683A
:4006C000794B0B401360002002F0B8F9774BE2582A43E250E158012291430A43E2506421002001F049FD674B1B683F229A5C052A06D970229A5C01210A406D4998684250B9
:400700009A6874215B5AD21851685F4B0B408C2189010B4353605B4B1B6873229A5C0321914070229A5C7220185C140084402143012002400A43802109060A438021C90013
:40074000986842509A6852583F229A5C062A03D90021584A986881509A6874215B5AD2181168494B0B40C02189000B431360454B1B687322995C703A8A40110070229A5CE1
:400780007220185C82400A43802109060A438021C900986842509A6852583F229A5C132A0AD97122985C703A82401100032282400A404149986842509A6876215B5AD2187F
:4007C00011683E4B0B403E490B4313602D4B1B6873229A5C0324210091400A007021585C0231595C8840104371229A5C01219140944022000A400243802109060A438021D4
:40080000C900986842509A6852583F229A5C142A07D970229A5C02210A40C5210901986842509A6874215B5AD2189168164B0B40C42189010B439360124B1A687323D35C96
:40084000032199407023D35C7220105C1C0084402143022003400B43802109060B438021C9009068435093685B5807B030BDC0460000274020A1070002004A000000264098
:400880009C53001044220008FF00FFFF087F0000400D030004050000FEFCFFFFFFFF00FFFFF0FFFFFF8FFFFFFFFCFFFF0C050000140C0000180C00004C0C0000FF0000FFDC
:4008C000004FC30070B58EB09621002001F054FC01F02AFC002801D101F016FC012002F045F8584A516C584B0B40E82189010B435364536C1B0AFF2213403A2B07D1514AF2
:40090000516C524B0B40E82189010B4353643422002101A804F0E8FC4D4C01AA0021200000F078FA3422002101A804F0DDFC01AA0121200000F06EFAFFF700FE454A464B55
:400940001A6000240CE0620012195300434AD318998B1A8B588B00041043FFF7E5FD01340B2CF0D900240AE06200121993003B4AD3189A6E596E186EFFF7DCFD0134112C51
:40098000F2D9374D2900383128003C30FFF7AAFD0F22344B1A60344A344B1A60344A1368812149000B43136001AC24220021200004F09AFCC023DB02E3602100244800F0A1
:4009C000C3FB22002B00403343CB43C243CB43C243CB43C22100274800F0B6FB22002B00643323CB23C223CB23C223CB23C22100214800F0A9FB2200204B083323CB23C2F9
:400A000023CB23C223CB23C221001D4800F09CFB24220021200004F067FC1A4BE3602100194800F091FB24220021200004F05CFC164BE3602100164800F086FBFFF76CFDB9
:400A40000EB070BD00002740FF00FFFFFFC5FFDF000032400300FA05F00121409C5300109C5400100000674007010100000267400079344080023240000332401C55001090
:400A80008003324066666606800432406666000000053240C00543425841C0B27047C046214B984230D00ED8402831D004D800281FD010282AD031E080282BD080235B0052
:400AC000984229D02AE0194B984229D007D8A0231B0698420DD0164B984212D01EE0154B98420AD0144B984209D0144B984215D101E0002016E0124814E0124812E012481D
:400B000010E0A020C0030DE007480BE00F4809E00F4807E00F4805E0034803E00E4801E0A420C0037047C04606005200010000F0090000A0040000F0050000F0030000F0EA
:400B4000010052000200520003005200010050000200500005005200FF00520070B5124B1A683123D35C002B04D1C421FF310F4801F0B4FA0C4B1D682C00B423EB582A6AE6
:400B8000944663441B68002B0BDB094B1868FFF787FF6B6801229A6063689B68002BFBD100E0044870BDC04644220008785E0010B81600080200500010B50D4B1861002882
:400BC00005D002230370FD33437000234380094B1B6850229A5C002A08D051229B5C002B04D04F3A0449002000F0DCFD10BDC046B816000844220008C102000810B5024865
:400C00001430FFF7D9FF10BDB816000870B504000D00FFF73FFF002836D0002D36D0FFF7D3FA1B4B1B4A1A6000225A609C60DD60194B1B6852329A5C002A1FD01A68842176
:400C40005B58D31819681A68120AFF2313405A1C0B0E01335343114C5C43114B1868FA21890002F0C1FD0100200002F0BDFD0D4BC1188020400004F05FFB08E000218020E8
:400C8000400004F059FB02E0074800E0064870BDB81600080001000544220008C0EA2101C4000008482600000600520010B5FFF755FF10BD10B50400FFF7ECFE00283ED0BD
:400CC000FFF782FAE02252051E4B1A601E4B1B78002B05D01B4A1368802149000B431360184B5C6000229A60DA60184B1B6854329A5C002A1ED01A6884215B58D31819688A
:400D00001A68120AFF2313405A1C0B0E013353430F4C5C430F4B1868FA21890002F064FD0100200002F060FD0B4BC118002004F003FB05E00021002004F0FEFA00E007488A
:400D400010BDC046B81600080B0000164422000860F59000C4000008980800000600520070B504000D00FFF795FE002842D0002D42D0FFF729FAC022D204204B1A60204B39
:400D80001B78002B05D01D4A1368802149000B4313601A4B802252005A609C60DD60194B1B68AD3A9A5C002A1FD01A6884215B58D31819681A68120AFF2313405A1C0B0E02
:400DC00001335343104C5C43104B1868FA21890002F00AFD0100200002F006FDE1239B00C118002004F0A8FA07E00021002004F0A3FA02E0064800E0054870BDB816000859
:400E00000B00001644220008808D5B00C400000806005200F8B54F464646C0B406000D001400002800D16FE1002A00D16EE1072903D94521B84801F051F92368012B03D95B
:400E40004621B54801F04AF90F2362689A4303D04721B14801F042F9237A1F22934303D04821AD4801F03AF9E368032B03D94921A94801F033F92369012B03D94A21A648DE
:400E800001F02CF96369012B03D94B21A24801F025F9A369012B03D94C219F4801F01EF9E369032B03D94D219B4801F017F9236A012B03D94E21984801F010F9636A012BF4
:400EC00003D94F21944801F009F9A36A012B03D95021914801F002F9E36A032B03D951218D4801F0FBF8236B072B03D952218A4801F0F4F82768072D03D98849884801F01B
:400F0000EDF8012F04D9CA218900854801F0E6F8002F03D10123AB40736002E00123AB40B3606768072D04D9F12189007C4801F0D5F80F233A009A4303D07A49784801F039
:400F4000CDF8A900784B1A687D23D35C9B191A6890460F2291468A40404690430200484607408F4017431F60277A072D04D9A22189006B4801F0B2F81F233A009A4303D0C1
:400F80006A49674801F0AAF8674B1A689369F31ADB0952691B01D318032D0AD81968E8001F22824091431F22174087400F431F600AE02A1F5968D2001F20904081431F20FF
:400FC000074097400F435F60E768082D04D9DD21C900534801F082F8032F03D95449504801F07CF86900504B1A687C23D35C9B191A689046032291468A404046904302006B
:40100000484607408F4017431F602769082D03D94849434801F062F8012F03D94649404801F05CF8B36901221100A9408B431740AF401F43B76163699846072D03D93F49BA
:40104000374801F04BF84346012B03D93C49344801F044F834487E230268D35C9B191A6801273900A9408C468A43110042463A40AA400A431A606B001022904698440321F2
:401080000B00424693406246134399467F2203689A5C9446B44463461A684B469A43A3693B40AB401A43E3691940434699400A4363461A6002688023D35CF6183368FF2234
:4010C000944693431800236A1F40636A5A00022313403B43A26A9100042739400B431F00E36AD900182319403B000B43226B520161460A401343AD00FE2292001540AB4068
:4011000003433360002002E00E4800E00D480CBC90469946F8BDC046B85E001027030000F85E0010C50300004422000889020000E9060000690600006A06000003040000C5
:401140000404000001005A0070B505000C0000285DD000295DD0FF230A689A4303D099212D4800F0BBFFFF2322699A4303D09A21294800F0B3FFA3685B0D03D09B21264873
:4011800000F0ACFF63685B0A03D09C21224800F0A5FFE3695B0F03D09D211F4800F09EFF236A5B0F03D09E211B4800F097FF1B4A11688B69EB1ADB0949691B01CB18216834
:4011C00029607D211068415C6918E06808607E211068415C6918206908607F211068415C6918606908607C211068415C6918A06808606168A961116880228A5CAD18A269AE
:401200002A60E2691A60226A5A60002002E0044800E0034870BDC046B85E00104422000801005A0070B504000D000A4B1A68B423D3581B181B68002B0ADA0B0C03D0064971
:40124000064800F04BFF2D042D0C6560002000E0034870BD44220008D5020000385F001001008A0070B505000C000368002B01DA002300E0084B002B0BD1EA60230C03D078
:401280000649074800F02AFF2404240CAC60002000E0014870BDC04601008A00BB020000385F001070B505000C1E03D19921084800F014FF074B1A68B423D3585B191B68A6
:4012C000002B03DAEB682360002000E0024870BD785F00104422000801008A0070B504000D00234B1A683123D35C834236D9002936D00B68DB0635D13123D35C984204D37F
:40130000C421FF311B4800F0E9FE194B1B681A6AB0215B5A5C431419174E34602B68DA080021686803F0E0FF00212000FFF77AFF3468002D03D111490E4800F0CFFE2A008C
:4013400000212000FFF78EFF00280DD10A4B18680021FFF767FF002808D108E0084806E0074804E0064802E0064800E0054870BD44220008385F0010D0160008930300008E
:4013800003018A0001018A0010B50400002A17D1002915D1124B1A683123D35C984204D3C421FF310F4800F099FE0D4B1B681A6AB0215B5A5C4314190B4B1C6000200EE092
:4013C000002A09D0002909D0074B59609A60191D2000FFF783FF02E0044800E0034810BD44220008385F0010D016000803018A00F0B583B00D001C4B1B68DC6823688342FB
:401400002DD947097B01C01A012383401E00002903D100F02AFF019001E000230193124B18680368002B01DA002300E00F4B002B0ED16368BF00DF193B68334203D1334323
:401440003B60002400E00A4C0021FFF7EBFE00E0084C002D04D1019800F00BFF00E0064C200003B0F0BDC046D016000801008A00020188000301880004018A00F0B583B0FF
:401480000D001C4B1B68DC68236883422DD947097B01C01A012383401E00002903D100F0E4FE019001E000230193124B18680368002B01DA002300E00F4B002B0ED1636878
:4014C000BF00DF193B68334203D0B3433B60002400E00A4C0021FFF7A5FE00E0084C002D04D1019800F0C5FE00E0064C200003B0F0BDC046D016000801008A000201880067
:401500000301880004018A000A4B1B68DA68136883420BD943095901401A0121814052689B009B580B4203D0034802E0034800E003487047D01600080101880004018A00A6
:4015400000018800034B1B68002B01D1014B18607047C046DC160008F0B5474680B404000F0090461E002D4B1B68002B03D1B5212B4800F0B3FD294B1B682C2060431C182F
:40158000FF22150035402560330A13406360360CA660244B1A683123D35C9D4204D3C421FF31214800F09AFD1E4B1A68B023D35A6B43116A8C466344236166683223D35CCE
:4015C0009E4204D3E021FF31174800F087FD154B1B681D6A80367601AD196561A668330C04D0FF214900104800F078FD330C03D00E490D4800F072FD3604330C1E43AE60C1
:401600004346E36127620023A361069B002B02D000229B5EA38104BC9046F0BDDC160008B85F001044220008385F0010FF010000F0B58FB0041E03D15221294800F04EFDDE
:401640006368032B03D95421254800F047FDE36A002B03D15821224800F040FD236B002B03D159211E4800F039FD07AA1300210061C961C321C921C302AD2900230014334D
:40168000C1CBC1C141CB41C10821535E0CAE3380144B1B6836215B5E07998C466344B370089B0D930B9B0A980096A26AE16AFFF753FF2B69E868002200920021FFF74CFFDF
:4016C000216B300000F09CFC0023F25E002A05DB1F231A401E3B9340034A13600FB0F0BDB85F00104422000800E100E0F8B505000F0016001C00002A03D1FD21224800F076
:40170000EDFC224B1B68002B03D1FE211E4800F0E5FC1E4B1B682C2128004843181879435918012213004D68AB401B044568AA4015000269002A20D08F69002F1FD112687B
:40174000002A01DA002200E0114A002A19D132681204120C134333600369DE6001238B614C6204692B0C03D00A490B4800F0B6FC2A04120CA260002004E0084802E0084841
:4017800000E00748F8BDC046B85F0010DC16000801008A00BB020000385F001004028A0007028A0070B504000D0016000F4B1B68002B04D1AF2149000D4800F08FFC0B4BA4
:4017C0001B682C2060431C18236A002B04D1B1214900074800F082FCE369B34204D9236AB6009D51002000E0024870BDDC160008B85F00100A028A0070B505000C00084BD8
:401800001B68002B04D1C8214900064800F066FC034B1B682C2068431818846270BDC046DC160008B85F001070B582B0040000230193002804D1D221FF312D4800F04EFC40
:401840002369002B04D1E9214900294800F046FC6369002B04D1D421FF31254800F03EFC236A002B04D1EA214900214800F036FC6269D5682B0C24D01B0413601368206929
:401880001C4B1A68B423D358C3181B68002B18DA01A9FFF707FD00280ED1019803681E0CFF221340E269934207D29B00226AD358002B02D0984700E0002631002069FFF798
:4018C000B1FC2D042D0C0FD063691D601B68636A002B03D098470023636203E0A36A002B00D098470023A36163691B6802B070BDB85F00104422000810B50400084B1B6841
:40190000002B04D1B221FF31064800F0E7FB044B1B682C2060431818FFF786FF10BDC046DC160008B85F001010B504000E4B1B68002B03D10D490E4800F0D0FB0A4B1B6841
:401940002C20604318180C23C25E002A0ADB1F231A401E3B9340802206498B50BFF34F8FBFF36F8F002010BDDC1600082B020000B85F001000E100E010B504000C4B1B6877
:40198000002B03D10B490C4800F0A8FB084B1B682C20604318180C23C25E002A05DB1F231A401E3B9340054A1360002010BDC046DC1600084B020000B85F001000E100E0F3
:4019C00010B50400094B1B689B6CC340DB0703D4BE21074800F082FB044B1B681B691034A402E3580F20184010BDC04644220008F85F0010134B1A683C23D35C83421DD916
:401A0000042904D94B1EFF3B9BB2132B18D8FF290CD91F2319400C4A0300C0339B009950D03080000423835000200AE007231940D0308000044BC150002002E0034800E0F2
:401A400002487047442200080000264001004A0010B504000E4B1A683C23D35C834204D8912149000B4800F039FB2300D0339B00094A985807231840042807D1C034A400DF
:401A8000A3581B30184080235B00184310BDC04644220008386000100000264070B5041E03D14A494A4800F019FBB023DB00494AD358002B00DA87E0474B22689A4203D9F0
:401AC0004649434800F00AFB23689B039B0BE279002A02D08022520400E000221343B022D2003C498B50A2883D4B9A4204D984218900374800F0F2FA2289344B9A4203D987
:401B00003849334800F0EAFAA388DB04D90C23891B04354A13400B43344A2E498B50A37A0F2B04D986218900294800F0D7FAE37A0F2B03D92E49264800F0D0FAA289284BE5
:401B40009A4203D92B49224800F0C8FAA37A0F211940E27A1201FF2313400B43A289120225490A401343A27B1207C02189050A401343B122D20017498B50A379042B03D9AC
:401B80001E49134800F0AAFA228A104B9A4204D9892189000E4800F0A1FA0E4818494558184B1D40A3791B02E022D20013402B4343504558144B1D40238A1B040A4A1340BA
:401BC0002B434350002000E0104870BDFF0100003860001000002640FFFF030009020000FF1F0000110200000000FF0184050000190200001A02000000FF1F002302000011
:401C00008C050000FFF8FFFFFFFF00FE03004A0070B505003149324A8B588020000603438B502C0003E0012000F04CFA013CB223DB002A4AD3585B0701D4002CF3D1274982
:401C4000B122D2008858274B03408020800503438B50002D01D0002C0CD02049B022D2008B588020000603438B5003E0012000F029FA013CB223DB00184AD358DB0701D4DF
:401C8000002CF3D1002D01D0002C08D01349B122D2008B58C020800503438B5013E00F4BB121C90058580F4A02408020800502435A5008395A58520052085A5008495A5835
:401CC000520052085A50002D03D0002C03D0002002E0002000E0044870BDC046000026408C050000FFFFFFCF02004A00F0B5564CA04200D9A2E0A24200D9A1E0534B9942C4
:401D000000D99FE00124524B1C70FF2805D80F2505400E340F26072321E04E4B984205D80F2303400F240026002518E0040A0F2323401D00484B984208D80001FF2318401B
:401D40002B000343FF240026002508E00402F020000120402B000343404C00260025FF2A0DD81201FF2002401543E020C0021843F0231E43F0231B0323439C4625E0354877
:401D8000824207D81004F022120310401843224394461AE0100A0004F0273F03384018432D4B9A4209D81205F0231B0413401843FF231B0423439C4607E01206F0231B0530
:401DC0001A401043264B23439C46264B1A68176AB023D45AE200131BFB181B68002BF4DA1B4B5B78002B04D01F4B204AD358002B18DA1F4A1F4B1A601F4A204B1A601B4A15
:401E0000A324E4001359B3431D4315511C4C13596546AB43184310510D4B5960124BD150002000E017480F4B1A68146AB023D15ACA00531AE31800225A6004E0114802E033
:401E4000104800E00F48F0BD0F060000FFFFFF00E0160008FF040000FF0500000F0F000000000F0F442200081C050000000026401F1F0000080126403D3D0000040126404C
:401E80001405000001004A0070B50022264B1A70264B1C68226AB023E55AEC00631BD3181C68002CF4DA224A1468224A944206D1214A1468214A944203D0002502E00025EE
:401EC00000E00125A422D2001D4CA4582402240A00225A60002D24D0002C23D000280FD1114B58680A000023002101F013FE6208002380185941220001F0ECFD040011E04B
:401F00000A0000232000002101F004FE064B5A685408002500196941002301F0DBFD040000E00024200070BDE016000844220008080126401F1F0000040126403D3D0000AA
:401F40000000264070B505000C001A4B1B6828229A5C012A15D1820807211000884327D19200AD1AED00FF20A8401B6820339A181168AC4023004B40184004004C401460C3
:401F800016E03A229B5EDBB2994203D176210A4800F0A4F8074B1B681B68072215408022120615438022920194466444A400E55070BDC04644220008C060001070B50400B3
:401FC0000D000B4B9A680B4B9A420CD1002904D13821FF31084800F081F81034054BA400E058E55003E01034A400044BE05870BD00ED00E000000008C060001000000010F4
:40200000F0B5474680B482B0061E01914AD04368032B03D93221264800F060F80023F05E002804DBB178FFF78DFF002400E0214C0023F15E7368002912DB88081E4FC03096
:402040008000C55903221140C900FC3290468A4095439A01434613408B402B43C35116E089B20F220A40083A92080632920013481018476803221140C900FF252A008A403E
:4020800097439A012B0013408B403B4343600B4B9A680B4B9A4206D10023F05E0199FFF78DFF00E0034C200002B004BC9046F0BDC06000100100560000E100E000ED00E0FA
:4020C0000000000810B5034B1B78584300F0C4F810BDC046D400000801BEFEE770B50D00044C18220100200003F006F9A5610020FFF7F2FF60070008024B1B685B68012297
:402100009A60704744220008054B802212069A649B6C002B01DB002000E002487047C0460000274003004600054B8022120198585B68FF221A4202D08023DB02184370471A
:4021400000002640FEE7C04610B50A4B0268DA6142681A6282685A62C2689A620269DA6242691A6382695A63C2699A63FFF7EAFF10BDC04660070008F0B5474680B400280F
:4021800001D0192300E064238B429B415B42304D2C682268A826A45BA41822680327BA433B401A4322602C682268A45BA2181668284CA046264016602C682668AA229446E3
:4021C000A25A96193268BA43134333602A6813686546525BD3181A68444614401C60002805D010291BD921291BD8012024E0184B1B6855229A5C914215D956229A5C9142A7
:4022000013D957229A5C914211D958229A5C91420FD959229B5C99420DD804200CE000200AE0022008E0002006E0012004E0022002E0032000E00520054A126852681368D0
:402240000F218B430343136004BC9046F0BDC04644220008FFFCFFFF0230800803D001300238FCD1C046C0467047EFF3108072B6704780F31088704710B5B0235B059B8940
:402280009BB2002B04D0B0235B059B899BB201E080235B0080225200934215D1184C23681968683A9B58C9180B680F208343963A13430B6021680C689C23CB58E318196866
:4022C00081430A431A6019E00D4C2368196898229B58C918B02040050A4BC2580A4B13400A681343C022920013430B60226811689C23D358CB18054A82581A6010BDC046F8
:402300004422000848180000FFFCFFFF4418000030B5B0235B059B899BB2002B04D0B0235B059B899BB201E080235B0080225200934215D1184C23681968683A9B58C918DA
:402340000B680F208343953A13430B6021680C689C23CB58E318196881430A431A6019E00D4D2B68196898229B58C918B0246405C12040012258094B13400A681343C02260
:40238000920013430B602A6811689C23D358CB1822581A6030BDC04644220008FFFCFFFFB0235B059B899BB2002B04D0B0235B059B899BB201E080235B00802252009342B5
:4023C0000DD1104B1B681A6898215B58D21811680D4B0B40C021C9010B43136011E0094B1B68196898229B58C918084BB0225205D258074B13400A681343C022920013430D
:402400000B60704744220008FF8FFFFF18180000FFFCFFFF30B5B0235B059B899BB2002B04D0B0235B059B899BB201E080235B008022520093420DD1134B1B681A68982189
:402440005B58D2181168114B0B408021C9010B43136018E00C4D2B68196898229B58C918B02464050A4822580A4B13400A681343C022920013430B602A6811689C23D358DD
:40248000CB1822581A6030BD44220008FF8FFFFF4C180000FFFCFFFF10B5B0235B059B899BB2002B04D0B0235B059B899BB201E080235B0080225200934217D10020FFF74F
:4024C0007FFAB0235B055B78002B04D0B0235B055B78DBB200E02123222B03D8002803D1013004E0012002E0002000E0012010BD10B50400012803D910491148FFF7EEFD1C
:40250000002C03D10F4B5869C00F00E000200E4B1A684423D35C002B0ED0012C0CD1094B9B695B0005D4074B9B69002B03DA012002E0012000E0002010BDC04662070000E3
:4025400004610010000026404422000870B504000D00154B1A684423D35C002B22D0072803D912491248FFF7B9FD0F4B1A684423D35C002B04D00F4B9B690722134000E0B0
:40258000002321009C420DD00A4882690726B243344014438461002D04D0994202D9C820FFF790FD70BDC04644220008CC070000046100100000264030B5021E22D0C3687A
:4025C000002B21D00368002B20D00579A900104BCC582300002103E0934205D019005B69002BF9D1012000E0002000280FD0002C03D1AD00064BEA5000E04A611161002370
:40260000536104E0002002E0002000E0002030BDEC16000830B585B004000D00022807D9042805D0032803D02A492B48FFF756FD6B1EDBB2012B07D9042D05D0082D03D056
:4026400026492548FFF74AFDA400254BE458042D13D0012D1CD112E0A3682B420BD1E3681A6802925B6801930393290002A8236898471B4B5C61646902E0002000E00020FF
:40268000002C24D0174B9842E6D1012DE4D11EE0022D01D104E01C006369002BFBD104E00F4B5C69002C00D0246900200DE0A3682B4209D1E3681A6802925B680193039329
:4026C000290002A8236898472469002CEFD105B030BDC046B209000004610010B3090000EC160008FF00420070B50500012804D9E02149001B48FFF7F1FC1B4B1B68002B71
:4027000005D001210020FFF785FF040000E00024002C20D1FFF7A9FD0600134B1B68002B03D004210020FFF775FF104A136904218B431361012D01D030BF00E020BF300099
:40274000FFF797FD084B1B68002B09D008210020FFF760FF04E002210020FFF75BFF044C200070BD04610010EC16000800ED00E0FF00420010B5FFF778FD074B5A68074922
:402780000A40E824A40122435A605A68114059605B68FFF76EFD10BD00002640FF00FC0FF8B50700012803D93D493E48FFF796FCB0235B055B78002B04D0B0235B055B787A
:4027C000DBB200E021239DB2B0235B059B899BB2002B04D0B0235B059E89B6B201E0802676000020FFF7ECF8002814D180235B009E4212D1222D12D82B4B1B685C682B4846
:4028000021582B4B19403B068022520413400B432350002404E0274C02E0264C00E0254C80235B009E4201D1222D03D880235B009E4232D01C4B1A683123D35C002B04D1BD
:40284000C421FF311C48FFF749FC174B1B681D6A80235B009E4203D1002F05D0174A06E0002F03D0164A02E0164A00E0164A01212800FEF7F7FC00280FD10B4B1A68B4236E
:40288000D3585B191B68002BF7DBEB681B0E1B06A0221206934200D100242000F8BDC0464C0A0000046100104422000818F00000FFFFFFFE04004200785E00100101003043
:4028C0000300000C010000300100000C70B50400022805D0052803D020492148FFF7FEFBFFF7DAFD002836D0FFF7BFFC0600022C07D10120FFF754FF051E0FD1FFF7BCFCCF
:402900000CE018494B6907229343043A13434B613420FFF7D7FBFFF77DFD0025002D16D110494B69072293431A000723234013434B61022C02D1FFF733FD08E09120FFF727
:40294000C1FBFFF7E5FC0020FFF72AFF05003000FFF78FFC00E0044D280070BD02070000046100100000264003004200F8B50500012804D9822109012948FFF7AFFBFFF7B4
:402980008BFD002849D0FFF770FC0700002D11D10021244B244AD150E823DB00B0225205D65CF6B20120FFF7FBFE041E19D1FFF763FC16E0B02252051C4BD0581A4B1949E8
:4029C00058501B49565CF6B21A481A581F218A4314390A431A500320FFF774FBFFF71AFD0024002C15D11049124A8B581F20834306401E438E50002D02D1FFF7D1FC08E0F4
:402A00000720FFF75FFBFFF783FC0020FFF7C8FE04003800FFF72DFC00E0074C2000F8BD04610010307F00000000264010180000410700001CFF000003004200042805D10F
:402A40000B4A116804230B4313600FE0094B1A681168A023D358CB180006C022920410401860034A136804218B4313607047C04610E000E0442200080749C02252008B58BB
:402A80009B009B088020C00503438B508B588020000603438B50704700002640014B18607047C0464422000870B5012902D0082940D045E00320FEF727FD254B984241D07E
:402AC00000F060FE01283FD0022004F0CBFA0500FFF7CBFB1F4B186004F0C8FA0400062817D0022D0AD1022006F07EF8032C01D0052C10D1002810D0174C13E0012006F0E4
:402B000073F8022C0BD000280BD1FFF7EDFD124C08E0002406E0104C04E0002402E00E4C00E00D4C0C4B9C420FD10A4B1868FFF7A0FB0AE0074B1868FFF79BFB002404E049
:402B4000054C02E0044C00E0034C200070BDC0460101880024170008FF004200002803D0024B5860002000E001487047241700080100160010B592B001AC4422002120008D
:402B800002F0B2FBD7231B01A3811B2323836383183B2377013363770C33E3772022A3540132A3545233A387203A223BE2540D48FFF702FD04F03CFA07A804F087FA00281F
:402BC0000ED1094B0293094B5B685968002904D01A222630684402F07EFB01A804F04AFA12B010BDE00000089C07000824170008014B024AD050704778F0010000003C40F5
:402C000010B50CF0ABFD10BD10B5024B1B68984710BDC0463417000810B5002809D0FA23FF33994207D80A00044902F054FB002002E0034800E0024810BDC04607080016EE
:402C400001001600F0B55F4656464D464446F0B4B14CA54481460E00904605930B00AF4A914204D942468A18AD498A4211D9AD4A934204D94246B218AB498A4209D9AB4A51
:402C8000934200D823E14346F318A94A934200D922E1A84B5B695B0010D5A64B5B6907241C40022C25D10520FFF710FE0190A24B9842F8D003940123049324E09F4B9D4A64
:402CC000D3581F221A40E823DB00B0214905CB5C9B1A5A1E9341DBB20493002B0FD10120FFF744FE944B9842F9D001900523039309E00394012304930023019303E005238B
:402D00000393002301938E4B019A9A4204D1D621FF318C48FFF7E2F9F0231B069C466644730A9A465C0200210320FEF761FB0028F9D100250023029399E0B4421BD3BD421A
:402D400019D24A4652191078804606A84146C154594600290DD1802149058846A044414609786846017001781278914201D001229346013505E080225205A218127806A8BE
:402D8000C2540134013304E0002100238B46844647466D4A9342D0D959466046B846002962D0019B002B5FD1059B002B51D1C83300951D00B3465646A24680231B03F71893
:402DC0007F023800FDF776FF0400013D0120FFF779F9A423DB0322001A409A4201D1002DEBD122000294009D5446B2465E46574B9A4205D1FDF75AFF554B9842FAD002902C
:402E0000029B002B19D1C83300971F00A34606A90098FDF7A5FF0400013F0120FFF752F9A423DB0322001A409A4204D1002FEED102945C4601E002945C46444B029A9A42A9
:402E400011D1FDF733FF424B9842FAD0029001200AE0802000035044400206A9FDF7D6FE0290012000E0012001239C46E244029B019A134301D1454586D3002801D0FFF77A
:402E80003BF900210320FEF7F9FA0028F9D1019B002B25D1274B5B695B0009D5039B022B06D10220FFF712FD0190234B9842F8D0204B1B681B0213D4049B002B10D100206D
:402EC000FFF754FD01901C4B9842F8D008E000230193204B029303E0002301931D4B0293019B002B0CD11C4B029999420AD0194B994207D0002901D1002004E0174802E00A
:402F0000174800E0174887239B009D443CBC90469946A246AB46F0BDE4FDFFFFFFFFFF0F00001010FFFFFF1300800014FF070016000A001600002640040042001CFF0000E8
:402F400003004200B4620010FF0100000100500002005000060052000200520013001600120016000100160010B500280AD0FA23FF33994208D8F93BFF3B0A000349FFF7A4
:402F800061FE02E0024800E0014810BD070800160100160000207047B0235B05588880B27047C0460020704710B5FFF78BF810BD064B1B681B6800229A5E002A05DB1F23DC
:402FC0001A401E3B9340024A136070472817000800E100E0094B1B681B6800229A5E002A0ADB1F231A401E3B9340802204498B50BFF34F8FBFF36F8F7047C0462817000874
:4030000000E100E0A023DB00024AD358032018407047C04600002640024B034AD058C00F7047C0461C0500000000264010B5FEF72BFF10BD70B504000D0016000320FEF732
:4030400063FA054B984205D0320029002000FEF74DFE00E0014870BD0101880003004A0070B5431ADC171B196340934227D3164B164CE458A405A40D884208D9401A51083A
:403080004018110000F0B0FB201A0ED50AE0081A51084018110000F0A7FB00190C4B984202D802E0002000E00A48084D06496B589B0A9B028205920D13436B5001E0002452
:4030C0000020201A70BDC0463C05000000002640FE030000FF03000010B5034B1A6880210902FFF7BDFF10BDF800000810B500F0E5F90220FFF77CFD094C23681868094903
:40310000FEF77EFF23681B6800229A5E002A05DB1F231A401E3B9340034A136010BDC04628170008012C001000E100E00420704710B5FFF79AF810BD10B5FFF79AF810BD3C
:4031400010B5FFF7D1FA10BD10B50021FFF7FEF910BDC04610B50020FEF70EFC10BDC04610B50020FEF7E0FB10BDC04610B5074B1960012201000020FEF714FB002803D143
:4031800000220349FEF70EFB10BDC04634170008092C001070B50B001500020000210120FEF7A4FA041E03D029000020FEF724FB200070BD70B50D000F4B184300040F4B38
:4031C000D861FA24A40003E0013C0120FEF77AFF0A4B1B6CDB0701D4002CF5D1002C08D0064B196C01220A431A64DB6A2B80002000E0034870BDC0460080FFFF00003C4070
:403200000400160010B500040E4B184001430E4BD961FA24A40003E0013C0120FEF752FF094B1B6CDB0701D4002CF5D1002C06D0054A116C01230B431364002000E0034854
:4032400010BDC0460000FF7F00003C4004001600F0B583B006000A24C02149017548FFF7D1FF002804D16B46991D7248FFF7A2FF002C01D0013C00E06F48002805D16B4678
:40328000DA88C0235B019A42E6D1002825D16B46991D6A48FFF78EFF00281ED16B4606331B885B0519D40A248021C9006348FFF7A9FF002804D16B46991D6048FFF77AFFD3
:4032C000002C01D0013C00E05B48002805D16B46DA888023DB009A42E6D1002804D16B46991D5748FFF766FF002844D16B4606331B883F229343B278012A15D1F1780129C2
:4033000004D88FB20222D21B95B201E000250227402213439BB2302213436A46D380494BCB40494A136013E0F178002904D18FB20122D21B95B201E000250127402293433C
:40334000102213436A46D380404BCB403E4A13606B469C1DD9883943D9803948FFF752FFF378DB1B03221340AA0092B213432380374A38498B50B0235B055B78002B04D027
:40338000B0235B055B78DBB200E02123212B4FD0314BB0225205D35A9BB2002B48D0002804D16B46991D2D48FFF704FF002824D16B469A1DDB8860218B4318001380B02500
:4033C0006D05254C2B5B60310B405B08034324490B401380295BC901F020C00001400B43204919401180285BC0239B000340DB00194311801948FFF705FF002804D16B467F
:40340000991D1948FFF7D6FE002811D16B469A1DD988C023994311800F4BB0204005C05A302303409B00194311800F48FFF7EAFE03B0F0BD021E000004001600031E0000F1
:40344000091E00000048E801C00000080024F40064F0010000003C4016180000071E00007FF5FFFFFFE7FFFF061E000070B50C004000084901430848FFF7C4FE051E04D170
:4034800006490748FFF7BEFE05006001FEF71AFE280070BD01100000081E0000376800000F1E00000349044A8858102303438B507047C04600003C4070F00100F0B59DB097
:4034C00013A9144B0A00180070C870C270C870C270C870C20AAD28001A002432D0CAD0C0D0CAD0C0D0CAD0C001AC22004833C1CBC1C2C1CBC1C2C1CBC1C20748FDF724FEA8
:4035000029000648FDF720FE21000548FDF71CFE1DB0F0BDF0620010000132408001324000023240F8B5051E00D1DDE0734B5B689B0301D5FFF71EF9714C03E0013C012072
:40354000FEF7C0FD6F4B704AD358002B01D0002CF4D16E4B6C4AD358DB0704D56C4BD358DB0700D5C2E0674B674AD358002B00D0BEE0FFF7A3FF644B6649674A99502A7824
:40358000A02109030A4365495A506549654A9950802252009B58DB0700D5ABE0624B1B6F1B0709D4614B1868614B984206D9190000F01AF9013802E0012000E00020524B6E
:4035C0001B68002803D040035A4A104300E05A4818434D4B1860494B5B695B0017D501210320FEF7B3FF454B5B699B0F01221340524A116844228A5C002A0ED0002B0CD0B7
:403600003E4A93698021C9050B43936105E03E494B4A8858032303438B503B4C3B4AA658484B3343A3504020FEF74CFD464BE358DB070BD42700444C01233B514020FEF740
:4036400041FD03233B514020FEF73CFD3F4F37403F4E3E432D4B2C4AD650FA24E40003E0013C0120FEF72EFD3A4B3B4AD358DB0601D4002CF4D1002C01D0002400E0374CE2
:40368000002C23D12049364A8858082303438B500120FEF72DFF002801D1324E3E43324B1E4001231E43194B174AD650144E03E0013E0120FEF706FD154B134AD358DB07E6
:4036C00001D4002EF4D1002E00D1244C002C03D12800FFF7BDFD0400002C0CD168782978FFF7C4FE040006E0204C04E0204C02E01F4C00E01F4C2000F8BDC04600002640F6
:40370000F07E0E006CF0010000003C40A0F00100B4F0010006000001A4F00100A8F0010001000100ACF0010000F03D40C800000800093D00041A0080040A0080442200080D
:40374000C4F0010030000300B0F00100EFFFFEFF2000020010400000000032400400160068F0010028000200FFFFFBFF010016000300160002001600014B18687047C0468B
:40378000C000000810B5002405E02000FEF760F9032804D00134042CF7D9002000E0012010BDC046A023DB00064AD35803221340012B03D0032B03D1012002E0012000E047
:4037C000002070470000264010B50548FFF7C6F90122044B1A70002801D1FFF7CBF910BDFC00000838170008002243088B4274D303098B425FD3030A8B4244D3030B8B4295
:4038000028D3030C8B420DD3FF22090212BA030C8B4202D31212090265D0030B8B4219D300E0090AC30B8B4201D3CB03C01A5241830B8B4201D38B03C01A5241430B8B421B
:4038400001D34B03C01A5241030B8B4201D30B03C01A5241C30A8B4201D3CB02C01A5241830A8B4201D38B02C01A5241430A8B4201D34B02C01A5241030A8B4201D30B025C
:40388000C01A5241CDD2C3098B4201D3CB01C01A524183098B4201D38B01C01A524143098B4201D34B01C01A524103098B4201D30B01C01A5241C3088B4201D3CB00C01A53
:4038C000524183088B4201D38B00C01A524143088B4201D34B00C01A5241411A00D20146524110467047FFE701B5002000F0F0F802BDC0460029F7D076E7704703460B4365
:403900007FD4002243088B4274D303098B425FD3030A8B4244D3030B8B4228D3030C8B420DD3FF22090212BA030C8B4202D31212090265D0030B8B4219D300E0090AC30B90
:403940008B4201D3CB03C01A5241830B8B4201D38B03C01A5241430B8B4201D34B03C01A5241030B8B4201D30B03C01A5241C30A8B4201D3CB02C01A5241830A8B4201D397
:403980008B02C01A5241430A8B4201D34B02C01A5241030A8B4201D30B02C01A5241CDD2C3098B4201D3CB01C01A524183098B4201D38B01C01A524143098B4201D34B0199
:4039C000C01A524103098B4201D30B01C01A5241C3088B4201D3CB00C01A524183088B4201D38B00C01A524143088B4201D34B00C01A5241411A00D20146524110467047B4
:403A00005DE0CA0F00D04942031000D34042534000229C4603098B422DD3030A8B4212D3FC22890112BA030A8B420CD3890192118B4208D3890192118B4204D389013AD017
:403A4000921100E08909C3098B4201D3CB01C01A524183098B4201D38B01C01A524143098B4201D34B01C01A524103098B4201D30B01C01A5241C3088B4201D3CB00C01A88
:403A8000524183088B4201D38B00C01A5241D9D243088B4201D34B00C01A5241411A00D20146634652415B10104601D34042002B00D54942704763465B1000D3404201B5D8
:403AC000002000F005F802BD0029F8D016E770477047C046002B11D1002A0FD1002900D1002802D00021C943081C07B4024802A14018029003BDC046D9FFFFFF03B46846A9
:403B000001B5029800F050F8019B9E4602B00CBC7047C046F0B54F464646C0B41604360C9946330005042C0C070C150C63437E436F4365431C0CAD1964199C46A64203D957
:403B400080235B02984647446346250CEF191D044B464A4343432D0C240464199918C91920000CBC90469946F0BDC04670B500220C4B04000D0001F05DFA002804D1200060
:403B8000290001F0B5F970BD064B00222000290000F05AFE01F0ACF980231B069C466044F1E7C0460000E041F0B54D46564644465F46F0B4924683B004000D0099468B42BE
:403BC0002FD82CD04946504601F05CFA29000600200001F057FA331A9846203B9B4600D574E053465A4693401F005346424693401E00AF4229D826D05B46A41BBD41002B87
:403C000000DA79E0002200230092019301235A4693400193012342469340009319E08242D0D900220023009201930C9B002B01D01C605D600098019903B03CBC904699466A
:403C4000A246AB46F0BDA342D6D900220023009201934346002BE8D0FB0772081A4346467B080EE0AB4201D1A2420CD8A41A9D41012024196D410021013E24184D41002EF6
:403C800006D0AB42EED9013E24196D41002EF8D15B460098019900196941002B22DB2B005A46D3402A004446E2401C005B461500002B2CDB26009E40330026004746BE40FB
:403CC0003200801A994100900191AEE7424620239B1A5246DA40414613004A468A4017001F4382E7424620239B1A2A0046469A402300F3401343D5E74246202300219B1A46
:403D00000022009101920122DA40019282E74246202326009B1ADE402F00B446974066463B003343C9E7C046F0B556464D4644465F46F0B41D000E034C00CB0F87B00700F4
:403D400092468146360B640D98466AD06D4B9C4235D08022430F12041343F6001E43C3009946694B00279C460023644402932B0368001B0BED0F51469B46400D009500D1E6
:403D800078E0604B98426CD05B46DA004B0F802109040B4313439B465346D9005A4B9C46002360444246201A6A40924601901F430F2F00D9B0E05548BF00C0598746374388
:403DC00000D088E0002399460233082700260293CDE74346B34649460093029B009A9246022B00D0BFE1002153460122002689461A40444B002136030C0D2405360B264365
:403E0000434C1B0526401E437600D207760816434846310007B03CBC90469946A246AB46F0BD330003434FD0002E00D1BCE1300001F00AF903000B3B1C2B00DDADE11D22AB
:403E40000100D31A08393A008F408E40DA40B9461643304B00279C46002360444442029385E753465A4613432CD1002300219B46023397E70B4320D05B46002B00D19EE13A
:403E8000584601F0E1F803000B3B1C2B00DD8FE102005946083A91408B461D21CB1A5146D9400B0059460B4351469B469140194B9C4660444042002374E7002300219B4615
:403EC00001336FE703236DE70023994601330427002602934BE703230C27029347E70122D51A382D00DCB0E153461A4000210023002689467EE700238026994600223603DC
:403F0000004B77E7FF07000001FCFFFF206E0010FFFF0F80F30300005E4500D972E100D16DE1019B4D46013B01930023340002935B461E020B0E1E430B020393330C9946E1
:403F400033041B0C494620000093FFF74DFC009B370043430600494620009846FFF7CAFC2C0C09040C43A04509D9E419731EA74200D95CE1A04500D859E1023EE419434616
:403F8000E41A49462000FFF72FFC0300009A80465343494620009B46FFF7ACFC2A040904120C0A4393450DD94346D219013B974200D93AE1934500D837E102235B429C46BF
:403FC000D219E0445B46D21A4346360433439B460399180C0B0C1D00059309045B46090C0C001B041B0C4443049159436B4368431B190D0CEB189C4203D980246402A4465B
:4040000060441C0C09041B04090C20185D18824200D2DEE000D1D7E0161A029B9C465D1BAC459B415B42F61AB74200D106E149463000FFF7D9FB009B04004343494630002B
:404040009846FFF757FC2E0C09040E43B04509D9F619631EB74200D9F3E0B04500D8F0E0023CF6194346F31A494618000293FFF7BBFB009B06004343494602989846FFF7E9
:4040800039FC2D0409042D0C0D43A84509D9ED19731EAF4200D9D6E0A84500D8D3E0023EED192404210043463143049E059A3000ED1A0B040C0C1B0C5843664353435443E3
:4040C0009A19030C9B189E4203D980225202944664441A0C00041B04000C14191B18A54250D34DD001231943964A019B94466344002B00DCF3E64A0709D00F220A40042A0B
:4041000005D00A1D8A42894149428B4411005A46D20108D55A468C4B1A4093468022D2009446019B6344894A934200DD5BE65A46C908500708435602514601225B058146E5
:40414000360B5B0D0A4055E680231B031E4211D05A461A420ED15E461E433603360B2A0089467B4B46E6032B00D1E1E0012BBBD11A40BBE61E433603360B4246744B39E616
:40418000002BB1D07D194A1EAF4252D91100A542A8D1039A9A42A5D1A6E703003E00283B9E400023994654E600F04EFF203041E603005246283B9A400021934677E6504615
:4041C00000F042FF20305EE6029B0026AB4200D323E7039E0299B44661448846B045B6415B467642F619B218013B0291974213D290424FD800D18EE0161A9B460DE789450E
:4042000000D28EE674084B46F60735005B081D434B46DB0702938BE69742EDD10399029CA142E5D93E1A9B46F7E69846CAE61E00A5E6AC423ED874D0110053E701214942BE
:4042400052E71C000EE71E002BE71F2D3CDC20230A0058465B1B9840EA4099400243481E81415E461143EE404B0709D00F230B40042B05D00B00191D99429B415B42F61842
:4042800033023CD55346012200211A40002601238946AFE502235B429C46039CE344A446029B63449846A045B6417642F6190293B218B1E603988A1E41008142B6417642CF
:4042C000F619AD19039161E71F225242D31A5A46DA401300202D29D040225846551BA8400143481E814107200B4318400026002809D00F2200261A401900042ABBD10B00F1
:4043000070077602360BDB0803439946012253461A4000236EE502998D42BBD89B4600267BE603989842C5D3110032E70020D7E780265B4636031E433603360B009A89467B
:40434000034B57E5FF030000FFFFFFFEFE070000FF070000F0B55F4656464D464446F0B40D0399464E002B0B87B00700924680469B46760DCC0F002E69D06D4B9E4235D072
:404380005B468022DD001204430F13432B439B46C3009846674B00279C460023664401934A4615035000D20F53462D0B400D914600D176E05E4A90426CD080225B0F120446
:4043C00013435C4AED0094461D4353460022DB00604449463618701C6140029017430F2F00D9AFE05448BF00C759BF465B461F4300D088E000239B4698460233082701932F
:40440000CEE74946022A6AD0032A00D109E2012A00D0BBE111400022002300259046CCB200212D030A0D12052D0B1543434A1B0515401D436D00E4076D08254340462900EE
:4044400007B03CBC90469946A246AB46F0BD034352D05B46002B00D18AE1584600F0F4FD03000B3B1C2B00DD7BE11D22D31A3A0001005D46DA4008398D4013008F402B4318
:404480009B46B8462E4B00279C46002360444642019385E752462A432CD100250023022297E752462A4321D0002D00D154E1280000F0CAFD03000B3B1C2B00DD46E11D2186
:4044C000CB1A51460200D9405346083A954093400D431B4A944660444042002279E7012400220C40124B0025904699E70025002301226EE703226CE700239B4698460133B2
:40450000042701934CE703230C27019348E700238025984600242D03054B81E75D464346019A6FE75D4643462100019A6AE7C046FF07000001FCFFFF606E0010FFFF0F80F3
:40454000F30300004246120C91461A0C9446424617044A461B041B0C5A43604690464A4642431000039262461C003F0C7A437C4342440192220C9246019A5244904506D9ED
:404580008246802040028046C24450460390100C049048462404240C1204121905922A0C2D042D0C68432C00824648467C4350438146200C8046574357444744BA4503D97B
:4045C000802040028046C144380C3F04B84648442404240C01900498A044404404905846000C814658460404200C8246070048465F434C46434360466043644683465046D0
:404600004443380C8446E4186444A34203D980235B029C46E34448463F04230C3F0C2404E419574668436F4384464D46504655434243380C814662444A445B44944503D96A
:40464000802040028446654403983F04834604983F0C8446E344C345804140428246100484460198674484466744A344BC46A345A4419946D44464428742BF41D4458041C6
:40468000E144A04699459B417F424042C8440743120CBA18A045A4415F423B0064422343D71843467D19DB0D6D021D435B465A02059B1A43531E9A415B46DB0D1A43434680
:4046C0005B021343EA0107D501225C0813402343EA07029E13436D08574AB218002A4BDD580709D00F201840042805D0181D98429B415B42ED180300E80104D54F4A1540E7
:404700008022D200B2184E48824200DDE7E60124DB08680718436D02530580462D0B5B0D0C407DE6802259461203114208D0154206D115432D0398462D0B4C46414B6FE6C9
:404740005D4615432D032D0B3E4B69E603005546283B9D400023BCE6504600F075FC2030A8E60300283B9F400023BB46984689E600F06AFC203073E60124A61A382E07DDA2
:4047800000220C4000230025904649E6029EA3E71F2E20DC20222C001800921BF040944093400443581E83411C43F540630709D00F232340042B05D023001C1D9C429241C3
:4047C0005242AD182B021FD5012400220C4001230025904624E61F202C004042821AD440202E1CD04022961BB5402B43581E83410720234318400025002809D00F2200259B
:404800001A401C00042AD8D1230068076D022D0B0124DB08034398460C40002300E60025E3E780220124120315432D0398462D0B0C40044BF4E5C046FF030000FFFFFFFE91
:40484000FE070000FF070000F0B557464E464546E0B40E001100F20F9246C500420F180337037400400A4E0F7F0A3043CF4E17435A00640D520DDB0FC900B24200D1E5E0E0
:4048800001267340A61AB446534500D1AFE0002E00DC0DE1002A3AD103000B4300D0E4E06B0709D00F232B40042B05D02B1DAB42AD416D427F191D003B0200D488E0BB4B68
:4048C00001349C4200D110E13A00B94B51461A4001235007ED08520264050543120B640D0B400021280012030D0D120B64052D0515436208AF4CDB072C4014436400640804
:404900001C4321001CBC90469946A246F0BDA74B9C42C5D080231B0418436346382B00DDFDE01F2B00DD30E1624620239B1A02009A40664690460A009940F24046464B1E4D
:4049400099413243114363460200DA40691A8D429B410D00BA1A5B42D71A3B0235D57A02530A98464346002B00D1C4E0404600F06BFB0300083B1F2B00DDC5E020222900B2
:40498000D21A4746D1409F400A009D403A439C4200DDC0E01C1B631C1F2B00DDE4E0202114002800C91AD8408C408D400443DA40681E854117002543002471E74246634644
:4049C0001A4300D14CE2674645466B0700D069E7012351467807ED08FA080B40054373498C4238D012036405120B640D79E7002E00DC9AE0002A47D06C4A944200D14FE777
:404A00008022120410436246382A00DC08E10143481E81410022C9B24919D219A942BF410D007F42BF183A0200D442E15F4A0134944200D14EE101205D4A69083A402840B4
:404A40000843D507054357089A4629E706000E4300D017E714E72900114300D1F9E1802109030A431203120B3BE701235B429846C4446346002B72D1691A8D429B413F1A9D
:404A80005B42FF1A0D0068E702000A4300D107E7012252429046C4446246002A00D0E6E06918A942B6413F187642F7190D00BAE7002E00D080E0621C5205520D012A00DC10
:404AC000F9E06A1A91464D45B6413A1A7642921B9046120200D499E04D1BA9428941C71B49427A1A90469A463CE752460123002513400022F5E6280000F0A6FA20300300D6
:404B0000083B1F2B00DC39E72A002838824000259C4200DC3EE7264FE41A1740C0E60143481E81410022C9B210E7002E00D0F1E0621C94465205520D012A00DCA0E01B4A63
:404B4000944500D1C5E06918A94292413F185242D2194908D5070D4357086446A0E6134B9C4200D0D9E69BE611001F3CE1400C00202B00D180E04021CB1A9A4015436A1E64
:404B800095410027254300241FE763460200203BDA406346202B71D0402366469B1B98400143481E814111430022CFE6FF070000FFFF7FFFFFFF0F80002C48D0CA4CA24290
:404BC00000D1A2E07442A1468024240427434C46382C00DDDBE01F2C00DD44E14E462024A41B3E00A640A246B0464C462E00E640B4464646644626435446A5406C1EA541AD
:404C000034002C434D46EF400D1B28E04A4643464D461A4300D0A5E6002300240025DEE61F2A5ADC66462022921B060096409146B04662460E00D640424616434A4691407A
:404C40004A1E9141020060463143C240E4E63C002C435AD0F443A146002C52D14D1BA9428941C71B49427F1A14009A4675E69E4A944200D0C7E613E600227FE700208FE70C
:404C8000002C00D0C8E03B002B4300D10FE103000B4300D104E66918A9429B413F185B42DF193B0200D41AE1904B0D001F406446F6E59A4689E63A002A43002C5CD1002A55
:404CC00075D102000A4300D1CAE007000D009A46E6E564460022002581E662460600203AD6406246B046202A00D1B7E040226646921B904001434246481E8141114300222A
:404D00008AE6794CA24200D061E707000D0014009A46C5E5002C41D13C002C4378D0F443A146002C20D0704CA24271D04C46382C00DDB2E01F2C00DDBCE02026341BA2469E
:404D40003C005646B4404E46A0462C00F440A446444666463443A4465446A54064466E1EB54125434C46E7406D188D4289413F184942CF19140056E6002A2FD102000A438F
:404D800000D184E007000D009A46574C88E53D436F1EBD41ECB200270D1B60E7524CA24236D0744280263604A1463743BEE702000A4300D174E56A1A90464545B6413A1AAF
:404DC0007642921B9446120200D4F7E54D1BA9428941C71B49427F1A9A4661E502000A433AD0ED087C072C438025FA082D032A4208D0C7082F4205D145072C003A009A4664
:404E0000C9080C43670FD200E5001743364C47E507000D00140043E53A002A4343D002000A4319D0ED087C072C438025FA082D032A4207D0C6082E4204D147073C0032000B
:404E4000C9080C43D700620FE50017439A46264C26E50022002544E5234C21E5002049E700230025BBE54C463E00203CE6404C46B446202C31D040244E46A61BB7403D43B6
:404E80006C1EA54164462C4300270D1BE7E6802200231203144C0025A1E53D436F1EBD410027EDB260E707000D000F4CF8E407000D00F5E44E463C00203EF440A0464C463E
:404EC000202C0ED040244E46A41BA7403D436F1EBD4144460027254346E70027CFE70D0073E50027F2E7C046FF070000FFFF7FFF0B0330B5134D1A0B4B005B0DC90F0024A8
:404F0000AB4211DD104CA34210DC8024640322430E4CE41A1F2C0CDD0D48C31ADA4013005C42002900D11C00200030BD094BCC18FAE7E040084CA44663449A4013000343FC
:404F4000EEE7C046FE0300001D0400003304000013040000FFFFFF7FEDFBFFFF70B5051E28D000F071F8154B154A1B1AD21A1F2A16DD2C00134A0025D21A94405A052403DB
:404F8000240B520D002124030B0D240B1B0523430D4C1205234013435B002800590870BD0B212C00081AC440954024035A05240B520DE7E700220024E4E7C0461E040000A6
:404FC0003304000013040000FFFF0F808446101C62468C46191C634600E0C0461FB500F001F9002801D40021C8421FBD10B500F055F84042013010BD10B500F0F3F8002896
:4050000001DB002010BD012010BDC04610B500F0E9F8002801DD002010BD012010BDC04610B500F07BF8002801DC002010BD012010BDC04610B500F071F8002801DA0020E7
:4050400010BD012010BDC0461C2101231B04984201D3000C10391B0A984201D3000A08391B09984201D30009043902A2105C40187047C04604030202010101010000000082
:405080000000000010B5002903D1FFF7DDFF203002E0081CFFF7D8FF10BDC046F0B55F4656464D464446F0B41F035C00DB0F9A46194B0E034D00C90F8046360B6D0D8B468B
:4050C00091463F0B640D9D4219D0134B9C421BD00123A54206D018003CBC90469946A246AB46F0BDBE42F6D1C845F4D1D34510D0002DF0D1304303005A1E9341EBE73100BF
:4051000001230143E7D1E0E73A430123002AE2D1DEE70023DFE7C046FF070000F0B55F46444656464D46F0B41F033C0B2C4F0E034D00A3465C008446360B6D0DC90F9046EF
:40514000640DDB0FBD422BD0254FBC422ED0002D0ED130430700814678427841002C17D15F463A4314D14B460020002B0AD006E0002C02D15846024301D099421AD0012357
:40518000484218433CBC90469946A246AB46F0BD0028F2D058425841012240421043F1E737000743D0D002204042EBE75F461743CDD0F8E7A542E2DC05DB5E45DFD808D021
:4051C00000205E45DED248424841012340421843D8E7C445D3D80020C445F4D3D2E7C046FF070000F0B55F464D4644465646F0B41C03240BA4462F4C0F034D005E00C90F11
:4052000080463F0B6D0D8B469146760DDB0FA54220D0284CA64222D0002D12D1384344424441002E20D0002C0DD05C42634101245B421C4320003CBC90469946A246AB46E4
:40524000F0BD002E17D05B4519D05B465C4201231C43EFE7390002240143EBD1D9E7614602241143E6D1D7E761460A43DBD100240028DFD0E9E761460A43E4D1E5E7B542BF
:4052800003DD01225C421443D4E7B542CDDB6745DBD809D000246745CCD259464C426141012449420C43C5E7C845CED80024C845F3D3BFE7FF07000030B50024A24208D061
:4052C000035D651C0C5DA34201D0181B02E02C00F4E7002030BD002310B59A4203D0CC5CC4540133F9E710BD03008218934202D019700133FAE77047030030B5002A0DD045
:405300000C7801335D1E013A2C700131002CF5D19A189A4202D01C700133FAE730BD0000F8B5C046F8BC08BC9E467047F8B5C046F8BC08BC9E46704701B40248844601BC3F
:40534000604700BF15030008030000000100000001000000000000000503600004000000010000000000000001000000060460000800000098160008BD010010737973746B
:40538000656D5F70736F63365F636D30706C75732E630000030018000300000019200102F4010000140004010A0009050800000063010000002034407400802034407400A1
:4053C000002234407400802234407400002434407400802434407400002634407400802634407400002834407400802834407400002A34407400802A34407400002134400C
:40540000485500109000000000233440D85500109000000000253440685600109000000000273440F856001090000000002934408857001090000000002B34401858001010
:405440009000000000603440A85800107C00000080603440245900107C00000000613440A05900107C000000806134401C5A00107C00000000623440985A00107C000000DA
:4054800080623440145B00107C00000000633440905B00107C000000806334400C5C00107C00000000643440885C00107C00000080643440045D00107C000000006534409C
:4054C000805D00107C00000080653440FC5D00107C0000002815680C027134400300000000000000000000006866660600000000000000000000000012120000000000000C
:405500003800000000000000000000000060CCBA0000000000000000000000000000000313131D1D0200000000000000000000006000000000000000000000000000000088
:405540000003000000000000000000000000000000000000FFFFFFFFFFFFFFFFFFFFFFFFFFFFFFFFFFFFFFFFFF000000FFFFFFFFFFFFFFFFFFFFFFFFFFFFFFFFFFFFFFFF51
:40558000FF000000000000000000000000000000000000000000000000000000FFFFFFFFFFFFFFFFFFFFFFFF11111111111111111111111111111111111111111111111160
:4055C000111111111111111111111111111111111111111111111111000000000000000000000000FFFFFFFFFFFFFFFFFFFFFFFFFFFFFFFFFFFFFFFFFF000000FFFFFFFF2C
:40560000FFFFFFFFFFFFFFFFFFFFFFFFFFFFFFFFFF000000000000000000000000000000000000000000000000000000FFFFFFFFFFFFFFFFFFFFFFFF1111111111111111FF
:4056400011111111111111111111111111111111111111111111111111111111111111111111111111111111000000000000000000000000FFFFFFFFFFFFFFFFFFFFFFFF8E
:40568000FFFFFFFFFFFFFFFFFF000000FFFFFFFFFFFFFFFFFFFFFFFFFFFFFFFFFFFFFFFFFF000000000000000000000000000000000000000000000000000000FFFFFFFF0C
:4056C000FFFFFFFFFFFFFFFF111111111111111111111111111111111111111111111111111111111111111111111111111111111111111111111111000000000000000082
:4057000000000000FFFFFFFFFFFFFFFFFFFFFFFFFFFFFFFFFFFFFFFFFF000000FFFFFFFFFFFFFFFFFFFFFFFFFFFFFFFFFFFFFFFFFF00000000000000000000000000000093
:40574000000000000000000000000000FFFFFFFFFFFFFFFFFFFFFFFF111111111111111111111111111111111111111111111111111111111111111111111111111111118D
:405780001111111111111111000000000000000000000000FFFFFFFFFFFFFFFFFFFFFFFFFFFFFFFFFFFFFFFFFF000000FFFFFFFFFFFFFFFFFFFFFFFFFFFFFFFFFFFFFFFF8A
:4057C000FF000000000000000000000000000000000000000000000000000000FFFFFFFFFFFFFFFFFFFFFFFF1111111111111111111111111111111111111111111111111E
:40580000111111111111111111111111111111111111111111111111000000000000000000000000FFFFFFFFFFFFFFFFFFFFFFFFFFFFFFFFFFFFFFFFFF000000FFFFFFFFE9
:40584000FFFFFFFFFFFFFFFFFFFFFFFFFFFFFFFFFF000000000000000000000000000000000000000000000000000000FFFFFFFFFFFFFFFFFFFFFFFF1111111111111111BD
:405880001111111111111111111111111111111111111111111111111111111111111111111111111111111100000000000000001F1F1F1F1F1F1F1F1F1F1F1F1F1F1F1F50
:4058C0001F1F1F1F1F1F1F1F1F1F1F1F1F1F1F1F000000000000000000000000000000000000000000000000FFFFFFFFFFFFFFFFFFFFFFFF111111111111111111111113F6
:4059000011111111111111111111111111111111111111111111114111111111111111111111111100000000000000001F1F1F1F1F1F1F1F1F1F1F1F1F1F1F1F1F1F1F1F67
:405940001F1F1F1F1F1F1F1F1F1F1F1F000000000000000000000000000000000000000000000000FFFFFFFFFFFFFFFFFFFFFFFF11111111111111111111111011111111B0
:40598000111111111111111111111111111111111111110111111111111111111111111100000000000000001F1F1F1F1F1F1F1F1F1F1F1F1F1F1F1F1F1F1F1F1F1F1F1FEF
:4059C0001F1F1F1F1F1F1F1F000000000000000000000000000000000000000000000000FFFFFFFFFFFFFFFFFFFFFFFF111111111111111111111110111111111111111168
:405A00001111111111111111111111111111110111111111111111111111111100000000000000001F1F1F1F1F1F1F1F1F1F1F1F1F1F1F1F1F1F1F1F1F1F1F1F1F1F1F1F36
:405A40001F1F1F1F000000000000000000000000000000000000000000000000FFFFFFFFFFFFFFFFFFFFFFFF1111111111111111111111101111111111111111111111111F
:405A800011111111111111111111110111111111111111111111111100000000000000001F1F1F1F1F1F1F1F1F1F1F1F1F1F1F1F051F1F1F1F1F1F1F1F1F1F1F1F1F1F1F98
:405AC000000000000000000000000000000000000000000000000000FFFFFFFFFFFFFFFFFFFFFFFF11111111111111111111111011111111111111111111111111111111D7
:405B0000111111111111110111111111111111111111111100000000000000001F1F1F1F1F1F1F1F1F1F1F1F1F1F1F1F1F1F1F091F1F1F1F1F1F1F1F1F1F1F1F0000000057
:405B40000000000000000000000000000000000000000000FFFFFFFFFFFFFFFFFFFFFFFF111111111111111111111110111111111111111111111111111111111111111112
:405B80001111111111111111111111111111111100000000000000001F1F1F1F1F1F1F1F1F1F1F1F1F1F1F1F1F1F1F1F1F1F1F1F1F1F1F1F1F1F1F1F0000000000000000F5
:405BC00000000000000000000000000000000000FFFFFFFFFFFFFFFFFFFFFFFF1111111111111111111111111111111111111111111111111111111111111111111111114D
:405C000011111111111111111111111100000000000000001F1F1F1F1F1F1F1F1F1F1F1F1F1F1F1F1F1F1F1F1F1F1F1F1F1F1F1F1F1F1F1F000000000000000000000000B8
:405C4000000000000000000000000000FFFFFFFFFFFFFFFFFFFFFFFF1111111111111111111111111111111111111111111111111111111111111111111111111111111188
:405C8000111111111111111100000000000000001F1F1F1F1F1F1F1F1F1F1F1F1F1F1F1F1F1F1F1F1F1F1F1F1F1F1F1F1F1F1F1F000000000000000000000000000000007C
:405CC0000000000000000000FFFFFFFFFFFFFFFFFFFFFFFF1111111111111111111111111111111111111111111111111111111111111111111111111111111111111111C4
:405D00001111111100000000000000001F1F1F1F1F1F1F1F1F1F1F1F1F1F1F1F1F1F1F1F1F1F1F1F1F1F1F1F1F1F1F1F00000000000000000000000000000000000000003F
:405D400000000000FFFFFFFFFFFFFFFFFFFFFFFF111111111111111111111111111111111111111111111111111111111111111111111111111111111111111111111111FF
:405D800000000000000000001F1F1F1F1F1F1F1F1F1F1F1F1F1F1F1F1F1F1F1F1F1F1F1F1F1F1F1F1F1F1F1F00000000000000000000000000000000000000000000000003
:405DC000FFFFFFFFFFFFFFFFFFFFFFFF111111111111111111111111111111111111111111111111111111111111111111111111111111111111111111111111000000007F
:405E0000000000001F1F1F1F1F1F1F1F1F1F1F1F1F1F1F1F1F1F1F1F1F1F1F1F1F1F1F1F1F1F1F1F000000000000000000000000000000000000000000000000FFFFFFFF86
:405E4000FFFFFFFFFFFFFFFF11111111111111111111111111111111111111111111111111111111111111111111111111111111111111111111111147656E6572617465CF
:405E8000645F536F757263655C50536F43365C70646C5C647269766572732F7065726970686572616C2F6970632F63795F6970635F6472762E68000047656E6572617465F8
:405EC000645F536F757263655C50536F43365C70646C5C647269766572735C7065726970686572616C5C6770696F5C63795F6770696F2E630000000047656E6572617465FB
:405F0000645F536F757263655C50536F43365C70646C5C647269766572735C7065726970686572616C5C6770696F5C63795F6770696F2E680000000047656E6572617465B5
:405F4000645F536F757263655C50536F43365C70646C5C647269766572735C7065726970686572616C5C6970635C63795F6970635F6472762E68000047656E6572617465B0
:405F8000645F536F757263655C50536F43365C70646C5C647269766572735C7065726970686572616C5C6970635C63795F6970635F6472762E63000047656E657261746575
:405FC000645F536F757263655C50536F43365C70646C5C647269766572735C7065726970686572616C5C6970635C63795F6970635F706970652E630047656E6572617465D3
:40600000645F536F757263655C50536F43365C70646C5C647269766572735C7065726970686572616C5C70726F745C63795F70726F742E630000000047656E65726174658D
:40604000645F536F757263655C50536F43365C70646C5C647269766572735C7065726970686572616C5C737973636C6B5C63795F737973636C6B2E630000000047656E6551
:4060800072617465645F536F757263655C50536F43365C70646C5C647269766572735C7065726970686572616C5C737973636C6B5C63795F737973636C6B2E6800000000DF
:4060C00047656E6572617465645F536F757263655C50536F43365C70646C5C647269766572735C7065726970686572616C5C737973696E745C63795F737973696E742E6303
:406100000000000047656E6572617465645F536F757263655C50536F43365C70646C5C647269766572735C7065726970686572616C5C737973706D5C63795F737973706D2F
:406140002E6300000000204000002440000000400000000000002340000030400000314000009F40000022400000104002020202020202020210101D800017007500FF0358
:406180000602063604102000000000007FC0000000040000000000000019324B647D00804000080B100000000000FF012002001F00800004FF081018001000140018001C7E
:4061C0004044484C50000000081000000800000004000000041000000012000004210000002100000016000040114002C41300138013A013200000001C0000000000214031
:4062000000002540000001400000344000002440000031400000324000001F410000234000001140010101010101010101101010800019005500F0000501053B04101C015B
:40624000010000000FC000000004000001010101011D3A57789600082000101208000000001F00000010000F002000023F06080E00080009000A000B24282C30340000007A
:40628000100000009000000088000000080000008000000004F0000000F00000400200002005A000D00100018001A001200000001000000047656E6572617465645F536F6F
:4062C000757263655C50536F43365C70646C5C6D6964646C65776172655C626C655C63795F626C655F68616C5F7076742E6300000000000000000000000000006666666623
:40630000000000000000FFFF000000001C1C1C1C1C1C1C1C00000000000000000000000066E6EE66000000000000FFFF000000001C1A1A1A1A1A0000000000000000000043
:406340000000000066E66666000000000000FFFF000000001A1A001C000000007C01000031010000090901120C000000FF03000080ABCDABCD80409C1B04041BFFFFFFFFCF
:40638000000000000410080007070400F216FBE0FBE01F60427EF56D720096BE2090000010502604060037D7F401FA00960064004B0032001E00140003040506020D110072
:4063C000BDFA001021FA00107B00011079FB00102BFC0010270001103F00011001010110A5FC00100DFD0010E9FE001017FF00104F01011015000110E3000110E300011072
:40640000E3000110BDFF001065FF0010A9FF0010813601108D360110BD450110A5460110B146011075FB0010BBFA0010BF00011029FC001063FC0010370001105900011052
:406440004D01011009FD001065FD001003FF00103DFF0010BB0101101F0001104D0101104D0101104D0101100D0001104D0101104D0101104D0101104D0101104D010110C4
:406480004D0101104D010110FB16011003170110FF160110F9160110D7160110D3160110F1160110EF160110CB160110CF16011007170110F3160110ED1601100B170110ED
:4064C0000B170110C9160110F7160110E92D01109D310110612F01100D2D01101D200110D11C0110A1270110E52201103D180110A1180110F53201102D2B01107D220110AB
:40650000511C01102D27011095790010DD2B011095330110113701105D380110393901104D350110F133011099360110D1340110FB3401100B3501100D35011011350110ED
:40654000E3000110FD3401100735011005350110BD490110B543011029490110D948011075490110BD460110C94501106146011025470110EDDE0010D7430110CD4301101A
:40658000D3430110D1430110D5430110CF430110E3000110E3000110E30001109DCD0010DD5C0110BF5C0110BF5C0110BF5C0110F55C01101D9A0110BF5C01100D9A011011
:4065C000259A0110159A0110776101106F610110D9600110D1600110CF5C0110B75C0110AD5C0110D35C0110C9600110F9600110C75C0110F160011051610110BF5C0110D2
:4066000001610110E9600110E1600110BF5C0110FD5C0110055D01100D5D0110C35C0110C35C0110DD5C0110BF5C0110BF5C0110BF5C0110F55C01101D9A0110BF5C011033
:406640000D9A0110259A0110159A0110776101106F610110D9600110D1600110CF5C0110B75C0110AD5C0110D35C0110C9600110F9600110C75C0110F160011051610110C5
:40668000BF5C011001610110E9600110E1600110BF5C0110FD5C0110055D01100D5D0110C35C0110C35C01105D8301105183011069830110C35C0110C35C0110E9800110FE
:4066C00025810110F5800110198101100D81011001810110318101103D810110458301104585011049850110558501102D85011039850110C35C0110C35C0110C35C01104E
:40670000C35C0110C35C0110C35C0110C35C0110C35C0110C35C0110C35C0110C35C0110C35C0110C35C0110C35C0110C35C0110C35C0110C35C0110C35C0110C35C011059
:40674000C35C0110C35C0110C35C0110C35C0110C35C0110C35C01104981011087770110357601103576011035760110B977011049770110357601102D770110F9770110D7
:4067800043770110D3770110C9770110B77501103576011035760110357601103B750110177701106175011099770110BF760110CF76011049760110357601100F780110C9
:4067C00085760110777601103576011003770110477801103576011035760110357601100D8301100183011019830110CD7601106776011035800110718001104180011085
:4068000065800110598001104D8001107D80011089800110F5820110E5840110F1840110FD840110CD840110D98401103576011035760110357601103576011035760110DC
:406840003576011035760110357601103576011035760110357601103576011035760110357601103576011035760110357601103576011035760110357601103576011058
:406880003576011035760110357601103576011095800110B77A0110E5790110E5790110E5790110FB7A0110617A0110E5790110A97A0110A97A0110537A0110117B01106F
:4068C000FF7A0110617901105D790110417A0110F5780110E7780110E7780110F9780110DB7A0110157A0110297A0110E9790110E5790110457B0110017A0110ED79011020
:40690000E5790110457A0110617B01105D7B0110E5790110E5790110398201102D82011045820110897B0110E37801107D7F0110857F0110917F01109D7F0110857F0110FA
:40694000857F0110A97F0110B57F011021820110F1830110FD83011009840110D9830110E5830110E5790110E5790110E5790110E5790110E5790110E5790110E57901102D
:40698000E5790110E5790110E5790110E5790110E5790110E5790110E5790110E5790110E5790110E5790110E5790110E5790110E5790110E5790110E5790110E5790110E7
:4069C000E5790110E5790110C17F011008000000060F0020200107021900000007070E05020220001C1202000103000E0306000400402707000007070102000203070304C2
:406A00000000000000000000000000000000000000000000000000000008000087770110357601103576011035760110B977011049770110357601102D770110F977011007
:406A400043770110D3770110C9770110B77501103576011035760110357601103B750110177701106175011099770110BF760110CF76011049760110357601100F78011006
:406A80008576011077760110357601100377011047780110357601103576011035760110B77A0110E5790110E5790110E5790110FB7A0110617A0110E5790110A97A0110DD
:406AC000A97A0110537A0110117B0110FF7A0110617901105D790110417A0110F5780110E7780110E7780110F9780110DB7A0110157A0110297A0110E9790110E579011043
:406B0000457B0110017A0110ED790110E5790110457A0110617B01105D7B0110E5790110E579011008000000060F0020200107021900000007070E05020220001C12020099
:406B40000103000E032000800000C00000000004000000A822000000000000040000F7FFFF7F0000003000000000000000000000000000000000000000000000000000002A
:406B80000000000000000000157E0110CD7F0110357F0110757E0110DB7F01105D7F0110457E0110E97F0110417F0110737E0110ED7F0110597F01105D7E0110DB7F0110D6
:406BC000517F0110477E0110DB7F0110497F01108B7E0110F97F0110657F0110917E0110098001106D7F011035760110E5790110C35C011035760110E5790110C35C011095
:406C000035760110E5790110C35C011035760110E5790110C35C011035760110E5790110C35C011035760110E5790110C35C011035760110E5790110C35C011035760110D1
:406C4000E5790110C35C01109F7E011021800110757F011035760110E5790110C35C011035760110E5790110C35C011035760110E5790110C35C011035760110E579011054
:406C8000C35C011035760110E5790110C35C011059810110698201100F820110578101105D820110078201107F810110B5820110178201105581011051820110FF810110EE
:406CC00035760110E5790110C35C011035760110E5790110C35C011035760110E5790110C35C011035760110E5790110C35C011035760110E5790110C35C011095830110A4
:406D00005184011000000000A383011065840110FD470110B18301108F8401102D4801107583011015840110B14401108383011033840110CD4401103030303142383030A3
:406D400030313032303330343035303630373038303930413042304330443045304631303131313231333134313531363137313831393141314231433144314531463230BD
:406D80003231323232333234323532363237323832393241324232433244324532463330333133323333333433353336333733383339334133423343334433454142000097
:406DC00026002B00300036003C0043004B0055005F006A00770086009600A800BD00D400EE000B012B014F017801A601DA01130254029D02EE024A03B1032404A5043605B0
:406E0000D9058F065C0742084409650AAA0B160DAF0E79107C12BD1445171C1A4B1DDE20183F0010E63D0010EC3E0010DC3D0010EC3E0010F63E0010EC3E0010DC3D001023
:406E4000E63D0010E63D0010F63E0010DC3D0010D23D0010D23D0010D23D001048410010444500100444001004440010024400101C4500101C4500100E450010024400100F
:406E80001C4500100E4500101C450010024400102445001024450010244500102447001000000000F8B5074600256846058078683C1D31492E46002807D06268002A06D00F
:406EC000800702D1207A800701D00D4651E0FCF70DF9FCF745F9FCF77DF8FCF727F900F035F900283DD1B88F0006C00F00F0AEF905460004000C34D12049084600F020FFF0
:406F00000004000C2DD12289A17A20681C4C002806D02060A280E68021810021FEF7E4F9684601F087FD054616486B460079E2888000001DC1B21B88A088D418A04206D310
:406F4000C01A801A80B201F01FFA044600E00E4C00F0AAFD002C04D100F0A8FB0B480121817000F001F9002D03D001F0FDFB074806702846F8BD00000100160021710010D8
:406F80003C17000892170008FFFF00000401000810B5094CA07801280AD06078012806D12078002803D101F0BAFB0020607010BD01F07EF810BD00000401000810B5FCF7BD
:406FC00021F8032801D100F061FE00F013FA01F0B5FD00F0E7FE02490020887010BD000004010008004870473C17000870B5044600208A0703D08A07920F891A091D084BDF
:4070000089B2DA889E885518B54206D81D68AA182260DA885118D98070BD024870BD00003C17000803001600004870474817000810B501F09FFC10BD0649002808D0064924
:40704000818005210170002141700321817000210846704701001600A703000010B5FFF797FF10BD10B501F08DFC10BD10B501F09BFC10BD38B50546002069460880002DAA
:4070800009D0284601F09EFD0446684601F0C6FC002C02D015E00C4838BD01F07DFC2846FFF700FF04000CD1284601F013FD040007D1FBF7A7FF032803D100F0ADFD00F0FC
:4070C000FBFD204638BD00000100160038B50446002069460880002C08D0A18C090A05D1617A102902D8E179102901D90A4838BDE0846946204601F031FD05466946E08CDE
:4071000009884018E084002D04D12A2221460348FEF7E1F8284638BD01001600481700087047000010B5084900200978002909D006F02AF8044605F0EDFE201A80B28100B4
:407140004018C00810BD00000C01000810B5FCF7B5F9482202490348FEF7BDF8002010BD606300107217000810B5FBF7F3FFFBF71FFF10BD10B51A46034C01F053FA00284C
:4071800000D00024204610BDFFFF000010B501F059FB10BD10B501F0B7FA10BD010010B5044806D0044A01201070002007F04AFF002010BDFFFF00000C01000870B500241F
:4071C000034D20462C7007F06BFF2C70204670BD0C01000801480078704700000C01000870B5591C89B24C080B4D64000021451906E028685054000A5618891C707089B255
:40720000A142F6D3D80705D0D0182038D15CC47FD454C17770BD000000103C4030B50A4C002100195B1E07E054186478555C240225430560891C89B29942F5DB994201D12C
